{
  "abi": [
    {
      "inputs": [
        {
          "internalType": "address",
          "name": "eas",
          "type": "address"
        },
        {
          "internalType": "bytes32",
          "name": "_schemaUID",
          "type": "bytes32"
        }
      ],
      "stateMutability": "nonpayable",
      "type": "constructor"
    },
    {
      "inputs": [],
      "name": "schemaUID",
      "outputs": [
        {
          "internalType": "bytes32",
          "name": "",
          "type": "bytes32"
        }
      ],
      "stateMutability": "view",
      "type": "function"
    }
  ],
  "bytecode": {
    "object": "0x60c060405234801561001057600080fd5b5060405161013738038061013783398101604081905261002f91610043565b6080526001600160a01b031660a05261007d565b6000806040838503121561005657600080fd5b82516001600160a01b038116811461006d57600080fd5b6020939093015192949293505050565b60805160a051609b61009c60003960005050600060310152609b6000f3fe6080604052348015600f57600080fd5b506004361060285760003560e01c8063f3de050614602d575b600080fd5b60537f000000000000000000000000000000000000000000000000000000000000000081565b60405190815260200160405180910390f3fea2646970667358221220763d16a8ad89f194f28ac95e30cb6281443f448d3d32ac2262b765e516493e9164736f6c63430008150033",
    "linkReferences": {}
  },
  "methodIdentifiers": {
    "schemaUID()": "f3de0506"
  },
  "id": 53
}