{
  "abi": [
    {
      "inputs": [
        {
          "internalType": "contract IEAS",
          "name": "eas",
          "type": "address"
        },
        {
          "internalType": "bytes32",
          "name": "schemaUID",
          "type": "bytes32"
        },
        {
          "internalType": "address[]",
          "name": "initialMembers",
          "type": "address[]"
        }
      ],
      "stateMutability": "nonpayable",
      "type": "constructor"
    },
    {
      "inputs": [
        {
          "internalType": "address",
          "name": "",
          "type": "address"
        }
      ],
      "name": "AlreadyAuthorized",
      "type": "error"
    },
    {
      "inputs": [
        {
          "internalType": "address",
          "name": "",
          "type": "address"
        }
      ],
      "name": "AlreadyUnauthorized",
      "type": "error"
    },
    {
      "inputs": [],
      "name": "CannotAuthorizeZeroAddress",
      "type": "error"
    },
    {
      "inputs": [
        {
          "internalType": "address",
          "name": "sender",
          "type": "address"
        },
        {
          "internalType": "uint256",
          "name": "tokenId",
          "type": "uint256"
        },
        {
          "internalType": "address",
          "name": "owner",
          "type": "address"
        }
      ],
      "name": "ERC721IncorrectOwner",
      "type": "error"
    },
    {
      "inputs": [
        {
          "internalType": "address",
          "name": "operator",
          "type": "address"
        },
        {
          "internalType": "uint256",
          "name": "tokenId",
          "type": "uint256"
        }
      ],
      "name": "ERC721InsufficientApproval",
      "type": "error"
    },
    {
      "inputs": [
        {
          "internalType": "address",
          "name": "approver",
          "type": "address"
        }
      ],
      "name": "ERC721InvalidApprover",
      "type": "error"
    },
    {
      "inputs": [
        {
          "internalType": "address",
          "name": "operator",
          "type": "address"
        }
      ],
      "name": "ERC721InvalidOperator",
      "type": "error"
    },
    {
      "inputs": [
        {
          "internalType": "address",
          "name": "owner",
          "type": "address"
        }
      ],
      "name": "ERC721InvalidOwner",
      "type": "error"
    },
    {
      "inputs": [
        {
          "internalType": "address",
          "name": "receiver",
          "type": "address"
        }
      ],
      "name": "ERC721InvalidReceiver",
      "type": "error"
    },
    {
      "inputs": [
        {
          "internalType": "address",
          "name": "sender",
          "type": "address"
        }
      ],
      "name": "ERC721InvalidSender",
      "type": "error"
    },
    {
      "inputs": [
        {
          "internalType": "uint256",
          "name": "tokenId",
          "type": "uint256"
        }
      ],
      "name": "ERC721NonexistentToken",
      "type": "error"
    },
    {
      "inputs": [],
      "name": "PassportAlreadyMinted",
      "type": "error"
    },
    {
      "inputs": [],
      "name": "PassportCannotBeTransfered",
      "type": "error"
    },
    {
      "inputs": [],
      "name": "PassportNotMinted",
      "type": "error"
    },
    {
      "inputs": [],
      "name": "TransferFailed",
      "type": "error"
    },
    {
      "inputs": [
        {
          "internalType": "address",
          "name": "",
          "type": "address"
        }
      ],
      "name": "Unauthorized",
      "type": "error"
    },
    {
      "anonymous": false,
      "inputs": [
        {
          "indexed": true,
          "internalType": "address",
          "name": "owner",
          "type": "address"
        },
        {
          "indexed": true,
          "internalType": "address",
          "name": "approved",
          "type": "address"
        },
        {
          "indexed": true,
          "internalType": "uint256",
          "name": "tokenId",
          "type": "uint256"
        }
      ],
      "name": "Approval",
      "type": "event"
    },
    {
      "anonymous": false,
      "inputs": [
        {
          "indexed": true,
          "internalType": "address",
          "name": "owner",
          "type": "address"
        },
        {
          "indexed": true,
          "internalType": "address",
          "name": "operator",
          "type": "address"
        },
        {
          "indexed": false,
          "internalType": "bool",
          "name": "approved",
          "type": "bool"
        }
      ],
      "name": "ApprovalForAll",
      "type": "event"
    },
    {
      "anonymous": false,
      "inputs": [
        {
          "indexed": false,
          "internalType": "uint256",
          "name": "_fromTokenId",
          "type": "uint256"
        },
        {
          "indexed": false,
          "internalType": "uint256",
          "name": "_toTokenId",
          "type": "uint256"
        }
      ],
      "name": "BatchMetadataUpdate",
      "type": "event"
    },
    {
      "anonymous": false,
      "inputs": [
        {
          "indexed": false,
          "internalType": "uint256",
          "name": "_tokenId",
          "type": "uint256"
        }
      ],
      "name": "MetadataUpdate",
      "type": "event"
    },
    {
      "anonymous": false,
      "inputs": [
        {
          "indexed": false,
          "internalType": "address",
          "name": "user",
          "type": "address"
        }
      ],
      "name": "PassportCreated",
      "type": "event"
    },
    {
      "anonymous": false,
      "inputs": [
        {
          "indexed": true,
          "internalType": "address",
          "name": "from",
          "type": "address"
        },
        {
          "indexed": true,
          "internalType": "address",
          "name": "to",
          "type": "address"
        },
        {
          "indexed": true,
          "internalType": "uint256",
          "name": "tokenId",
          "type": "uint256"
        }
      ],
      "name": "Transfer",
      "type": "event"
    },
    {
      "inputs": [
        {
          "internalType": "address",
          "name": "to",
          "type": "address"
        },
        {
          "internalType": "uint256",
          "name": "tokenId",
          "type": "uint256"
        }
      ],
      "name": "approve",
      "outputs": [],
      "stateMutability": "nonpayable",
      "type": "function"
    },
    {
      "inputs": [
        {
          "internalType": "address",
          "name": "member",
          "type": "address"
        }
      ],
      "name": "authorize",
      "outputs": [],
      "stateMutability": "nonpayable",
      "type": "function"
    },
    {
      "inputs": [
        {
          "internalType": "address",
          "name": "owner",
          "type": "address"
        }
      ],
      "name": "balanceOf",
      "outputs": [
        {
          "internalType": "uint256",
          "name": "",
          "type": "uint256"
        }
      ],
      "stateMutability": "view",
      "type": "function"
    },
    {
      "inputs": [
        {
          "internalType": "address",
          "name": "passportHolder",
          "type": "address"
        },
        {
          "internalType": "string",
          "name": "_name",
          "type": "string"
        },
        {
          "internalType": "string",
          "name": "_placeOfBirth",
          "type": "string"
        },
        {
          "internalType": "uint256",
          "name": "_dateOfBirth",
          "type": "uint256"
        },
        {
          "internalType": "string",
          "name": "uri",
          "type": "string"
        }
      ],
      "name": "createPassport",
      "outputs": [],
      "stateMutability": "nonpayable",
      "type": "function"
    },
    {
      "inputs": [],
      "name": "getAllAuthorizedMembers",
      "outputs": [
        {
          "internalType": "address[]",
          "name": "",
          "type": "address[]"
        }
      ],
      "stateMutability": "view",
      "type": "function"
    },
    {
      "inputs": [
        {
          "internalType": "uint256",
          "name": "tokenId",
          "type": "uint256"
        }
      ],
      "name": "getApproved",
      "outputs": [
        {
          "internalType": "address",
          "name": "",
          "type": "address"
        }
      ],
      "stateMutability": "view",
      "type": "function"
    },
    {
      "inputs": [],
      "name": "getPassport",
      "outputs": [
        {
          "internalType": "string",
          "name": "name",
          "type": "string"
        },
        {
          "internalType": "string",
          "name": "placeOfBirth",
          "type": "string"
        },
        {
          "internalType": "uint256",
          "name": "dateOfBirth",
          "type": "uint256"
        },
        {
          "internalType": "uint256",
          "name": "issueDate",
          "type": "uint256"
        }
      ],
      "stateMutability": "view",
      "type": "function"
    },
    {
      "inputs": [
        {
          "internalType": "address",
          "name": "user",
          "type": "address"
        }
      ],
      "name": "getPassportId",
      "outputs": [
        {
          "internalType": "uint256",
          "name": "",
          "type": "uint256"
        }
      ],
      "stateMutability": "view",
      "type": "function"
    },
    {
      "inputs": [
        {
          "internalType": "address",
          "name": "recipient",
          "type": "address"
        },
        {
          "internalType": "string",
          "name": "name",
          "type": "string"
        },
        {
          "internalType": "string",
          "name": "country",
          "type": "string"
        }
      ],
      "name": "grantStamp",
      "outputs": [
        {
          "internalType": "bytes32",
          "name": "attestationUID",
          "type": "bytes32"
        }
      ],
      "stateMutability": "nonpayable",
      "type": "function"
    },
    {
      "inputs": [
        {
          "internalType": "address",
          "name": "owner",
          "type": "address"
        },
        {
          "internalType": "address",
          "name": "operator",
          "type": "address"
        }
      ],
      "name": "isApprovedForAll",
      "outputs": [
        {
          "internalType": "bool",
          "name": "",
          "type": "bool"
        }
      ],
      "stateMutability": "view",
      "type": "function"
    },
    {
      "inputs": [
        {
          "internalType": "address",
          "name": "member",
          "type": "address"
        }
      ],
      "name": "isAuthorzedMember",
      "outputs": [
        {
          "internalType": "bool",
          "name": "",
          "type": "bool"
        }
      ],
      "stateMutability": "view",
      "type": "function"
    },
    {
      "inputs": [],
      "name": "name",
      "outputs": [
        {
          "internalType": "string",
          "name": "",
          "type": "string"
        }
      ],
      "stateMutability": "view",
      "type": "function"
    },
    {
      "inputs": [
        {
          "internalType": "uint256",
          "name": "tokenId",
          "type": "uint256"
        }
      ],
      "name": "ownerOf",
      "outputs": [
        {
          "internalType": "address",
          "name": "",
          "type": "address"
        }
      ],
      "stateMutability": "view",
      "type": "function"
    },
    {
      "inputs": [
        {
          "internalType": "address",
          "name": "from",
          "type": "address"
        },
        {
          "internalType": "address",
          "name": "to",
          "type": "address"
        },
        {
          "internalType": "uint256",
          "name": "tokenId",
          "type": "uint256"
        }
      ],
      "name": "safeTransferFrom",
      "outputs": [],
      "stateMutability": "nonpayable",
      "type": "function"
    },
    {
      "inputs": [
        {
          "internalType": "address",
          "name": "from",
          "type": "address"
        },
        {
          "internalType": "address",
          "name": "to",
          "type": "address"
        },
        {
          "internalType": "uint256",
          "name": "tokenId",
          "type": "uint256"
        },
        {
          "internalType": "bytes",
          "name": "data",
          "type": "bytes"
        }
      ],
      "name": "safeTransferFrom",
      "outputs": [],
      "stateMutability": "nonpayable",
      "type": "function"
    },
    {
      "inputs": [],
      "name": "schemaUID",
      "outputs": [
        {
          "internalType": "bytes32",
          "name": "",
          "type": "bytes32"
        }
      ],
      "stateMutability": "view",
      "type": "function"
    },
    {
      "inputs": [
        {
          "internalType": "address",
          "name": "operator",
          "type": "address"
        },
        {
          "internalType": "bool",
          "name": "approved",
          "type": "bool"
        }
      ],
      "name": "setApprovalForAll",
      "outputs": [],
      "stateMutability": "nonpayable",
      "type": "function"
    },
    {
      "inputs": [
        {
          "internalType": "bytes4",
          "name": "interfaceId",
          "type": "bytes4"
        }
      ],
      "name": "supportsInterface",
      "outputs": [
        {
          "internalType": "bool",
          "name": "",
          "type": "bool"
        }
      ],
      "stateMutability": "view",
      "type": "function"
    },
    {
      "inputs": [],
      "name": "symbol",
      "outputs": [
        {
          "internalType": "string",
          "name": "",
          "type": "string"
        }
      ],
      "stateMutability": "view",
      "type": "function"
    },
    {
      "inputs": [
        {
          "internalType": "uint256",
          "name": "tokenId",
          "type": "uint256"
        }
      ],
      "name": "tokenURI",
      "outputs": [
        {
          "internalType": "string",
          "name": "",
          "type": "string"
        }
      ],
      "stateMutability": "view",
      "type": "function"
    },
    {
      "inputs": [
        {
          "internalType": "address",
          "name": "from",
          "type": "address"
        },
        {
          "internalType": "address",
          "name": "to",
          "type": "address"
        },
        {
          "internalType": "uint256",
          "name": "tokenId",
          "type": "uint256"
        }
      ],
      "name": "transferFrom",
      "outputs": [],
      "stateMutability": "nonpayable",
      "type": "function"
    },
    {
      "inputs": [
        {
          "internalType": "address",
          "name": "member",
          "type": "address"
        }
      ],
      "name": "unauthorize",
      "outputs": [],
      "stateMutability": "nonpayable",
      "type": "function"
    },
    {
      "stateMutability": "payable",
      "type": "receive"
    }
  ],
  "bytecode": {
    "object": "0x60c06040523480156200001157600080fd5b50604051620026ae380380620026ae8339810160408190526200003491620001be565b82826040518060400160405280600b81526020016a14185cdcdc1bdc9d13919560aa1b815250604051806040016040528060038152602001624d544b60e81b815250816000908162000087919062000341565b50600162000096828262000341565b5050506080526001600160a01b031660a05260005b815181101562000173576000828281518110620000cc57620000cc6200040d565b6020026020010151905060006001600160a01b0316816001600160a01b031603620000f857506200015e565b6008805460018181019092557ff3f7a9fe364faab93b216da50a3214154f22a0a2b415b23a84c8169e8b636ee30180546001600160a01b039093166001600160a01b0319909316831790556000918252600a6020526040909120805460ff191690911790555b806200016a8162000423565b915050620000ab565b505050506200044b565b6001600160a01b03811681146200019357600080fd5b50565b634e487b7160e01b600052604160045260246000fd5b8051620001b9816200017d565b919050565b600080600060608486031215620001d457600080fd5b8351620001e1816200017d565b60208581015160408701519295509350906001600160401b03808211156200020857600080fd5b818701915087601f8301126200021d57600080fd5b81518181111562000232576200023262000196565b8060051b604051601f19603f830116810181811085821117156200025a576200025a62000196565b60405291825284820192508381018501918a8311156200027957600080fd5b938501935b82851015620002a2576200029285620001ac565b845293850193928501926200027e565b8096505050505050509250925092565b600181811c90821680620002c757607f821691505b602082108103620002e857634e487b7160e01b600052602260045260246000fd5b50919050565b601f8211156200033c57600081815260208120601f850160051c81016020861015620003175750805b601f850160051c820191505b81811015620003385782815560010162000323565b5050505b505050565b81516001600160401b038111156200035d576200035d62000196565b62000375816200036e8454620002b2565b84620002ee565b602080601f831160018114620003ad5760008415620003945750858301515b600019600386901b1c1916600185901b17855562000338565b600085815260208120601f198616915b82811015620003de57888601518255948401946001909101908401620003bd565b5085821015620003fd5787850151600019600388901b60f8161c191681555b5050505050600190811b01905550565b634e487b7160e01b600052603260045260246000fd5b6000600182016200044457634e487b7160e01b600052601160045260246000fd5b5060010190565b60805160a0516122366200047860003960006112dd0152600081816104a8015261131701526122366000f3fe6080604052600436106101395760003560e01c806393138b1e116100ab578063c87b56dd1161006f578063c87b56dd14610414578063e985e9c514610434578063efa309ff14610454578063f0b37c0414610476578063f3de050614610496578063ffeacfda146104ca57600080fd5b806393138b1e1461036657806395d89b411461039f578063a22cb465146103b4578063b6a5d7de146103d4578063b88d4fde146103f457600080fd5b806323b872dd116100fd57806323b872dd146102a157806342842e0e146102c15780636352211e146102e157806370a082311461030157806378f7aef0146103215780638eb20b0b1461034157600080fd5b806301ffc9a7146101ae57806306fdde03146101e3578063081812fc14610205578063095ea7b31461023d57806310a943cf1461025d57600080fd5b366101a957604051600090339034908381818185875af1925050503d8060008114610180576040519150601f19603f3d011682016040523d82523d6000602084013e610185565b606091505b50509050806101a7576040516312171d8360e31b815260040160405180910390fd5b005b600080fd5b3480156101ba57600080fd5b506101ce6101c9366004611a03565b6104ea565b60405190151581526020015b60405180910390f35b3480156101ef57600080fd5b506101f86104fb565b6040516101da9190611a70565b34801561021157600080fd5b50610225610220366004611a83565b61058d565b6040516001600160a01b0390911681526020016101da565b34801561024957600080fd5b506101a7610258366004611ab8565b6105b6565b34801561026957600080fd5b50610293610278366004611ae2565b6001600160a01b03166000908152600b602052604090205490565b6040519081526020016101da565b3480156102ad57600080fd5b506101a76102bc366004611afd565b6105c5565b3480156102cd57600080fd5b506101a76102dc366004611afd565b610613565b3480156102ed57600080fd5b506102256102fc366004611a83565b61062e565b34801561030d57600080fd5b5061029361031c366004611ae2565b610639565b34801561032d57600080fd5b506101a761033c366004611c0e565b610686565b34801561034d57600080fd5b50610356610882565b6040516101da9493929190611cd0565b34801561037257600080fd5b506101ce610381366004611ae2565b6001600160a01b03166000908152600a602052604090205460ff1690565b3480156103ab57600080fd5b506101f8610a84565b3480156103c057600080fd5b506101a76103cf366004611d09565b610a93565b3480156103e057600080fd5b506101a76103ef366004611ae2565b610a9e565b34801561040057600080fd5b506101a761040f366004611d45565b610bad565b34801561042057600080fd5b506101f861042f366004611a83565b610bca565b34801561044057600080fd5b506101ce61044f366004611dc1565b610bd5565b34801561046057600080fd5b50610469610c03565b6040516101da9190611df4565b34801561048257600080fd5b506101a7610491366004611ae2565b610c64565b3480156104a257600080fd5b506102937f000000000000000000000000000000000000000000000000000000000000000081565b3480156104d657600080fd5b506102936104e5366004611e41565b610dee565b60006104f582610ea5565b92915050565b60606000805461050a90611ec2565b80601f016020809104026020016040519081016040528092919081815260200182805461053690611ec2565b80156105835780601f1061055857610100808354040283529160200191610583565b820191906000526020600020905b81548152906001019060200180831161056657829003601f168201915b5050505050905090565b600061059882610eca565b506000828152600460205260409020546001600160a01b03166104f5565b6105c1828233610f03565b5050565b6001600160a01b038316158015906105e557506001600160a01b03821615155b1561060357604051630b04e6e360e41b815260040160405180910390fd5b61060e838383610f10565b505050565b61060e83838360405180602001604052806000815250610bad565b60006104f582610eca565b60006001600160a01b03821661066a576040516322718ad960e21b8152600060048201526024015b60405180910390fd5b506001600160a01b031660009081526003602052604090205490565b336000818152600a602052604090205460ff166106c15760405163472511eb60e11b81526001600160a01b0382166004820152602401610661565b6001600160a01b0388166000908152600b6020526040902054156106f8576040516370f9e29b60e11b815260040160405180910390fd5b600060076000815461070990611f12565b91829055506040805160c06020601f8c01819004028201810190925260a081018a81529293509182918b908b9081908501838280828437600092019190915250505090825250604080516020601f8a0181900481028201810190925288815291810191908990899081908401838280828437600092018290525093855250505060208083018890524260408085019190915280518381528083018252606090940193909352848252600c905220815181906107c49082611f79565b50602082015160018201906107d99082611f79565b5060408201516002820155606082015160038201556080820151805161080991600484019160209091019061198a565b5050506001600160a01b0389166000908152600b602052604090208190556108318982610f95565b61083b8184610faf565b6040516001600160a01b038a1681527f325b88bc4ac3fed38ad6d226bfb680c4dae1e2be7e3ca7865aff5ebad93ad6cf9060200160405180910390a1505050505050505050565b336000908152600b6020526040812054606091829181908082036108b9576040516383bf443960e01b815260040160405180910390fd5b6000818152600c6020526040808220815160a081019092528054829082906108e090611ec2565b80601f016020809104026020016040519081016040528092919081815260200182805461090c90611ec2565b80156109595780601f1061092e57610100808354040283529160200191610959565b820191906000526020600020905b81548152906001019060200180831161093c57829003601f168201915b5050505050815260200160018201805461097290611ec2565b80601f016020809104026020016040519081016040528092919081815260200182805461099e90611ec2565b80156109eb5780601f106109c0576101008083540402835291602001916109eb565b820191906000526020600020905b8154815290600101906020018083116109ce57829003601f168201915b50505050508152602001600282015481526020016003820154815260200160048201805480602002602001604051908101604052809291908181526020018280548015610a5757602002820191906000526020600020905b815481526020019060010190808311610a43575b505050919092525050815160208301516040840151606090940151919a9099509297509550909350505050565b60606001805461050a90611ec2565b6105c1338383610fff565b336000818152600a602052604090205460ff16610ad95760405163472511eb60e11b81526001600160a01b0382166004820152602401610661565b6001600160a01b038216610b005760405163a9d8d06360e01b815260040160405180910390fd5b6001600160a01b0382166000908152600a602052604090205460ff1615610b4557604051637103fd5f60e11b81526001600160a01b0383166004820152602401610661565b506008805460018181019092557ff3f7a9fe364faab93b216da50a3214154f22a0a2b415b23a84c8169e8b636ee30180546001600160a01b039093166001600160a01b0319909316831790556000918252600a6020526040909120805460ff19169091179055565b610bb88484846105c5565b610bc48484848461109e565b50505050565b60606104f5826111c7565b6001600160a01b03918216600090815260056020908152604080832093909416825291909152205460ff1690565b6060600880548060200260200160405190810160405280929190818152602001828054801561058357602002820191906000526020600020905b81546001600160a01b03168152600190910190602001808311610c3d575050505050905090565b336000818152600a602052604090205460ff16610c9f5760405163472511eb60e11b81526001600160a01b0382166004820152602401610661565b6001600160a01b0382166000908152600a602052604090205460ff16610ce35760405163032cc75b60e21b81526001600160a01b0383166004820152602401610661565b6001600160a01b03821660009081526009602052604081205460088054919291610d0f90600190612039565b81548110610d1f57610d1f61204c565b600091825260209091200154600880546001600160a01b039092169250829184908110610d4e57610d4e61204c565b600091825260208083209190910180546001600160a01b0319166001600160a01b0394851617905591831681526009909152604090208290556008805480610d9857610d98612062565b60008281526020808220830160001990810180546001600160a01b03191690559092019092556001600160a01b03959095168152600a85526040808220805460ff19169055600990955293842093909355505050565b336000818152600a602052604081205490919060ff16610e2c5760405163472511eb60e11b81526001600160a01b0382166004820152602401610661565b6001600160a01b0387166000908152600b602052604081205490819003610e66576040516383bf443960e01b815260040160405180910390fd5b610e743388888888426112d8565b6000918252600c60209081526040832060040180546001810182559084529220909101819055979650505050505050565b60006001600160e01b03198216632483248360e11b14806104f557506104f582611418565b6000818152600260205260408120546001600160a01b0316806104f557604051637e27328960e01b815260048101849052602401610661565b61060e8383836001611468565b6001600160a01b038216610f3a57604051633250574960e11b815260006004820152602401610661565b6000610f4783833361156e565b9050836001600160a01b0316816001600160a01b031614610bc4576040516364283d7b60e01b81526001600160a01b0380861660048301526024820184905282166044820152606401610661565b6105c1828260405180602001604052806000815250611667565b6000828152600660205260409020610fc78282611f79565b506040518281527ff8e1a15aba9398e019f0b49df1a4fde98ee17ae345cb5f6b5e2c27f5033e8ce79060200160405180910390a15050565b6001600160a01b03821661103157604051630b61174360e31b81526001600160a01b0383166004820152602401610661565b6001600160a01b03838116600081815260056020908152604080832094871680845294825291829020805460ff191686151590811790915591519182527f17307eab39ab6107e8899845ad3d59bd9653f200f220920489ca2b5937696c31910160405180910390a3505050565b6001600160a01b0383163b15610bc457604051630a85bd0160e11b81526001600160a01b0384169063150b7a02906110e0903390889087908790600401612078565b6020604051808303816000875af192505050801561111b575060408051601f3d908101601f19168201909252611118918101906120b5565b60015b611184573d808015611149576040519150601f19603f3d011682016040523d82523d6000602084013e61114e565b606091505b50805160000361117c57604051633250574960e11b81526001600160a01b0385166004820152602401610661565b805181602001fd5b6001600160e01b03198116630a85bd0160e11b146111c057604051633250574960e11b81526001600160a01b0385166004820152602401610661565b5050505050565b60606111d282610eca565b50600082815260066020526040812080546111ec90611ec2565b80601f016020809104026020016040519081016040528092919081815260200182805461121890611ec2565b80156112655780601f1061123a57610100808354040283529160200191611265565b820191906000526020600020905b81548152906001019060200180831161124857829003601f168201915b50505050509050600061128360408051602081019091526000815290565b90508051600003611295575092915050565b8151156112c75780826040516020016112af9291906120d2565b60405160208183030381529060405292505050919050565b6112d08461167e565b949350505050565b6000807f00000000000000000000000000000000000000000000000000000000000000006001600160a01b031663f17325e760405180604001604052807f000000000000000000000000000000000000000000000000000000000000000081526020016040518060c001604052808d6001600160a01b03168152602001600067ffffffffffffffff1681526020016000151581526020016000801b81526020018c8c8c8c8c60405160200161139195949392919061212a565b604051602081830303815290604052815260200160008152508152506040518263ffffffff1660e01b81526004016113c99190612164565b6020604051808303816000875af11580156113e8573d6000803e3d6000fd5b505050506040513d601f19601f8201168201806040525081019061140c91906121e7565b98975050505050505050565b60006001600160e01b031982166380ac58cd60e01b148061144957506001600160e01b03198216635b5e139f60e01b145b806104f557506301ffc9a760e01b6001600160e01b03198316146104f5565b808061147c57506001600160a01b03821615155b1561153e57600061148c84610eca565b90506001600160a01b038316158015906114b85750826001600160a01b0316816001600160a01b031614155b80156114cb57506114c98184610bd5565b155b156114f45760405163a9fbf51f60e01b81526001600160a01b0384166004820152602401610661565b811561153c5783856001600160a01b0316826001600160a01b03167f8c5be1e5ebec7d5bd14f71427d1e84f3dd0314c0f7b2291e5b200ac8c7c3b92560405160405180910390a45b505b5050600090815260046020526040902080546001600160a01b0319166001600160a01b0392909216919091179055565b6000828152600260205260408120546001600160a01b039081169083161561159b5761159b8184866116f3565b6001600160a01b038116156115d9576115b8600085600080611468565b6001600160a01b038116600090815260036020526040902080546000190190555b6001600160a01b03851615611608576001600160a01b0385166000908152600360205260409020805460010190555b60008481526002602052604080822080546001600160a01b0319166001600160a01b0389811691821790925591518793918516917fddf252ad1be2c89b69c2b068fc378daa952ba7f163c4a11628f55a4df523b3ef91a4949350505050565b6116718383611757565b61060e600084848461109e565b606061168982610eca565b5060006116a160408051602081019091526000815290565b905060008151116116c157604051806020016040528060008152506116ec565b806116cb846117bc565b6040516020016116dc9291906120d2565b6040516020818303038152906040525b9392505050565b6116fe83838361184f565b61060e576001600160a01b03831661172c57604051637e27328960e01b815260048101829052602401610661565b60405163177e802f60e01b81526001600160a01b038316600482015260248101829052604401610661565b6001600160a01b03821661178157604051633250574960e11b815260006004820152602401610661565b600061178f8383600061156e565b90506001600160a01b0381161561060e576040516339e3563760e11b815260006004820152602401610661565b606060006117c9836118b2565b600101905060008167ffffffffffffffff8111156117e9576117e9611b82565b6040519080825280601f01601f191660200182016040528015611813576020820181803683370190505b5090508181016020015b600019016f181899199a1a9b1b9c1cb0b131b232b360811b600a86061a8153600a850494508461181d57509392505050565b60006001600160a01b038316158015906112d05750826001600160a01b0316846001600160a01b0316148061188957506118898484610bd5565b806112d05750506000908152600460205260409020546001600160a01b03908116911614919050565b60008072184f03e93ff9f4daa797ed6e38ed64bf6a1f0160401b83106118f15772184f03e93ff9f4daa797ed6e38ed64bf6a1f0160401b830492506040015b6d04ee2d6d415b85acef8100000000831061191d576d04ee2d6d415b85acef8100000000830492506020015b662386f26fc10000831061193b57662386f26fc10000830492506010015b6305f5e1008310611953576305f5e100830492506008015b612710831061196757612710830492506004015b60648310611979576064830492506002015b600a83106104f55760010192915050565b8280548282559060005260206000209081019282156119c5579160200282015b828111156119c55782518255916020019190600101906119aa565b506119d19291506119d5565b5090565b5b808211156119d157600081556001016119d6565b6001600160e01b031981168114611a0057600080fd5b50565b600060208284031215611a1557600080fd5b81356116ec816119ea565b60005b83811015611a3b578181015183820152602001611a23565b50506000910152565b60008151808452611a5c816020860160208601611a20565b601f01601f19169290920160200192915050565b6020815260006116ec6020830184611a44565b600060208284031215611a9557600080fd5b5035919050565b80356001600160a01b0381168114611ab357600080fd5b919050565b60008060408385031215611acb57600080fd5b611ad483611a9c565b946020939093013593505050565b600060208284031215611af457600080fd5b6116ec82611a9c565b600080600060608486031215611b1257600080fd5b611b1b84611a9c565b9250611b2960208501611a9c565b9150604084013590509250925092565b60008083601f840112611b4b57600080fd5b50813567ffffffffffffffff811115611b6357600080fd5b602083019150836020828501011115611b7b57600080fd5b9250929050565b634e487b7160e01b600052604160045260246000fd5b600067ffffffffffffffff80841115611bb357611bb3611b82565b604051601f8501601f19908116603f01168101908282118183101715611bdb57611bdb611b82565b81604052809350858152868686011115611bf457600080fd5b858560208301376000602087830101525050509392505050565b600080600080600080600060a0888a031215611c2957600080fd5b611c3288611a9c565b9650602088013567ffffffffffffffff80821115611c4f57600080fd5b611c5b8b838c01611b39565b909850965060408a0135915080821115611c7457600080fd5b611c808b838c01611b39565b909650945060608a0135935060808a0135915080821115611ca057600080fd5b508801601f81018a13611cb257600080fd5b611cc18a823560208401611b98565b91505092959891949750929550565b608081526000611ce36080830187611a44565b8281036020840152611cf58187611a44565b604084019590955250506060015292915050565b60008060408385031215611d1c57600080fd5b611d2583611a9c565b915060208301358015158114611d3a57600080fd5b809150509250929050565b60008060008060808587031215611d5b57600080fd5b611d6485611a9c565b9350611d7260208601611a9c565b925060408501359150606085013567ffffffffffffffff811115611d9557600080fd5b8501601f81018713611da657600080fd5b611db587823560208401611b98565b91505092959194509250565b60008060408385031215611dd457600080fd5b611ddd83611a9c565b9150611deb60208401611a9c565b90509250929050565b6020808252825182820181905260009190848201906040850190845b81811015611e355783516001600160a01b031683529284019291840191600101611e10565b50909695505050505050565b600080600080600060608688031215611e5957600080fd5b611e6286611a9c565b9450602086013567ffffffffffffffff80821115611e7f57600080fd5b611e8b89838a01611b39565b90965094506040880135915080821115611ea457600080fd5b50611eb188828901611b39565b969995985093965092949392505050565b600181811c90821680611ed657607f821691505b602082108103611ef657634e487b7160e01b600052602260045260246000fd5b50919050565b634e487b7160e01b600052601160045260246000fd5b600060018201611f2457611f24611efc565b5060010190565b601f82111561060e57600081815260208120601f850160051c81016020861015611f525750805b601f850160051c820191505b81811015611f7157828155600101611f5e565b505050505050565b815167ffffffffffffffff811115611f9357611f93611b82565b611fa781611fa18454611ec2565b84611f2b565b602080601f831160018114611fdc5760008415611fc45750858301515b600019600386901b1c1916600185901b178555611f71565b600085815260208120601f198616915b8281101561200b57888601518255948401946001909101908401611fec565b50858210156120295787850151600019600388901b60f8161c191681555b5050505050600190811b01905550565b818103818111156104f5576104f5611efc565b634e487b7160e01b600052603260045260246000fd5b634e487b7160e01b600052603160045260246000fd5b6001600160a01b03858116825284166020820152604081018390526080606082018190526000906120ab90830184611a44565b9695505050505050565b6000602082840312156120c757600080fd5b81516116ec816119ea565b600083516120e4818460208801611a20565b8351908301906120f8818360208801611a20565b01949350505050565b81835281816020850137506000828201602090810191909152601f909101601f19169091010190565b60608152600061213e606083018789612101565b8281036020840152612151818688612101565b9150508260408301529695505050505050565b60208152815160208201526000602083015160408084015260018060a01b03815116606084015267ffffffffffffffff60208201511660808401526040810151151560a0840152606081015160c0840152608081015160c060e08501526121cf610120850182611a44565b905060a0820151610100850152809250505092915050565b6000602082840312156121f957600080fd5b505191905056fea2646970667358221220e6d54ab3140d293f057feee28a7b815ce25e17576724708c445e3e9b4af74fb464736f6c63430008150033",
    "linkReferences": {}
  },
  "methodIdentifiers": {
    "approve(address,uint256)": "095ea7b3",
    "authorize(address)": "b6a5d7de",
    "balanceOf(address)": "70a08231",
    "createPassport(address,string,string,uint256,string)": "78f7aef0",
    "getAllAuthorizedMembers()": "efa309ff",
    "getApproved(uint256)": "081812fc",
    "getPassport()": "8eb20b0b",
    "getPassportId(address)": "10a943cf",
    "grantStamp(address,string,string)": "ffeacfda",
    "isApprovedForAll(address,address)": "e985e9c5",
    "isAuthorzedMember(address)": "93138b1e",
    "name()": "06fdde03",
    "ownerOf(uint256)": "6352211e",
    "safeTransferFrom(address,address,uint256)": "42842e0e",
    "safeTransferFrom(address,address,uint256,bytes)": "b88d4fde",
    "schemaUID()": "f3de0506",
    "setApprovalForAll(address,bool)": "a22cb465",
    "supportsInterface(bytes4)": "01ffc9a7",
    "symbol()": "95d89b41",
    "tokenURI(uint256)": "c87b56dd",
    "transferFrom(address,address,uint256)": "23b872dd",
    "unauthorize(address)": "f0b37c04"
  },
  "id": 53
}