{
  "abi": [
    {
      "inputs": [
        {
          "internalType": "address",
          "name": "eas",
          "type": "address"
        },
        {
          "internalType": "bytes32",
          "name": "schemaUID",
          "type": "bytes32"
        }
      ],
      "stateMutability": "nonpayable",
      "type": "constructor"
    },
    {
      "inputs": [
        {
          "internalType": "address",
          "name": "sender",
          "type": "address"
        },
        {
          "internalType": "uint256",
          "name": "tokenId",
          "type": "uint256"
        },
        {
          "internalType": "address",
          "name": "owner",
          "type": "address"
        }
      ],
      "name": "ERC721IncorrectOwner",
      "type": "error"
    },
    {
      "inputs": [
        {
          "internalType": "address",
          "name": "operator",
          "type": "address"
        },
        {
          "internalType": "uint256",
          "name": "tokenId",
          "type": "uint256"
        }
      ],
      "name": "ERC721InsufficientApproval",
      "type": "error"
    },
    {
      "inputs": [
        {
          "internalType": "address",
          "name": "approver",
          "type": "address"
        }
      ],
      "name": "ERC721InvalidApprover",
      "type": "error"
    },
    {
      "inputs": [
        {
          "internalType": "address",
          "name": "operator",
          "type": "address"
        }
      ],
      "name": "ERC721InvalidOperator",
      "type": "error"
    },
    {
      "inputs": [
        {
          "internalType": "address",
          "name": "owner",
          "type": "address"
        }
      ],
      "name": "ERC721InvalidOwner",
      "type": "error"
    },
    {
      "inputs": [
        {
          "internalType": "address",
          "name": "receiver",
          "type": "address"
        }
      ],
      "name": "ERC721InvalidReceiver",
      "type": "error"
    },
    {
      "inputs": [
        {
          "internalType": "address",
          "name": "sender",
          "type": "address"
        }
      ],
      "name": "ERC721InvalidSender",
      "type": "error"
    },
    {
      "inputs": [
        {
          "internalType": "uint256",
          "name": "tokenId",
          "type": "uint256"
        }
      ],
      "name": "ERC721NonexistentToken",
      "type": "error"
    },
    {
      "inputs": [],
      "name": "PassportNFT__DetailsMismatch",
      "type": "error"
    },
    {
      "inputs": [],
      "name": "PassportNFT__PassportAlreadyMinted",
      "type": "error"
    },
    {
      "inputs": [],
      "name": "PassportNFT__PassportCannotBeTransfered",
      "type": "error"
    },
    {
      "inputs": [],
      "name": "PassportNFT__PassportNotMinted",
      "type": "error"
    },
    {
      "anonymous": false,
      "inputs": [
        {
          "indexed": true,
          "internalType": "address",
          "name": "owner",
          "type": "address"
        },
        {
          "indexed": true,
          "internalType": "address",
          "name": "approved",
          "type": "address"
        },
        {
          "indexed": true,
          "internalType": "uint256",
          "name": "tokenId",
          "type": "uint256"
        }
      ],
      "name": "Approval",
      "type": "event"
    },
    {
      "anonymous": false,
      "inputs": [
        {
          "indexed": true,
          "internalType": "address",
          "name": "owner",
          "type": "address"
        },
        {
          "indexed": true,
          "internalType": "address",
          "name": "operator",
          "type": "address"
        },
        {
          "indexed": false,
          "internalType": "bool",
          "name": "approved",
          "type": "bool"
        }
      ],
      "name": "ApprovalForAll",
      "type": "event"
    },
    {
      "anonymous": false,
      "inputs": [
        {
          "indexed": false,
          "internalType": "uint256",
          "name": "_fromTokenId",
          "type": "uint256"
        },
        {
          "indexed": false,
          "internalType": "uint256",
          "name": "_toTokenId",
          "type": "uint256"
        }
      ],
      "name": "BatchMetadataUpdate",
      "type": "event"
    },
    {
      "anonymous": false,
      "inputs": [
        {
          "indexed": false,
          "internalType": "uint256",
          "name": "_tokenId",
          "type": "uint256"
        }
      ],
      "name": "MetadataUpdate",
      "type": "event"
    },
    {
      "anonymous": false,
      "inputs": [
        {
          "indexed": false,
          "internalType": "address",
          "name": "user",
          "type": "address"
        }
      ],
      "name": "PassportCreated",
      "type": "event"
    },
    {
      "anonymous": false,
      "inputs": [
        {
          "indexed": true,
          "internalType": "address",
          "name": "from",
          "type": "address"
        },
        {
          "indexed": true,
          "internalType": "address",
          "name": "to",
          "type": "address"
        },
        {
          "indexed": true,
          "internalType": "uint256",
          "name": "tokenId",
          "type": "uint256"
        }
      ],
      "name": "Transfer",
      "type": "event"
    },
    {
      "inputs": [
        {
          "internalType": "address",
          "name": "to",
          "type": "address"
        },
        {
          "internalType": "uint256",
          "name": "tokenId",
          "type": "uint256"
        }
      ],
      "name": "approve",
      "outputs": [],
      "stateMutability": "nonpayable",
      "type": "function"
    },
    {
      "inputs": [
        {
          "internalType": "address",
          "name": "owner",
          "type": "address"
        }
      ],
      "name": "balanceOf",
      "outputs": [
        {
          "internalType": "uint256",
          "name": "",
          "type": "uint256"
        }
      ],
      "stateMutability": "view",
      "type": "function"
    },
    {
      "inputs": [
        {
          "internalType": "string",
          "name": "_name",
          "type": "string"
        },
        {
          "internalType": "string",
          "name": "_placeOfBirth",
          "type": "string"
        },
        {
          "internalType": "uint256",
          "name": "_dateOfBirth",
          "type": "uint256"
        },
        {
          "internalType": "uint256",
          "name": "_socialSecurityNumber",
          "type": "uint256"
        },
        {
          "internalType": "uint256",
          "name": "_driversLicenceNumber",
          "type": "uint256"
        },
        {
          "internalType": "string",
          "name": "uri",
          "type": "string"
        }
      ],
      "name": "createPassport",
      "outputs": [],
      "stateMutability": "nonpayable",
      "type": "function"
    },
    {
      "inputs": [
        {
          "internalType": "string",
          "name": "name",
          "type": "string"
        },
        {
          "internalType": "string",
          "name": "country",
          "type": "string"
        }
      ],
      "name": "createStamp",
      "outputs": [
        {
          "internalType": "bytes32",
          "name": "attestationUID",
          "type": "bytes32"
        }
      ],
      "stateMutability": "nonpayable",
      "type": "function"
    },
    {
      "inputs": [
        {
          "internalType": "uint256",
          "name": "tokenId",
          "type": "uint256"
        }
      ],
      "name": "getApproved",
      "outputs": [
        {
          "internalType": "address",
          "name": "",
          "type": "address"
        }
      ],
      "stateMutability": "view",
      "type": "function"
    },
    {
      "inputs": [],
      "name": "getPassport",
      "outputs": [
        {
          "internalType": "string",
          "name": "name",
          "type": "string"
        },
        {
          "internalType": "string",
          "name": "placeOfBirth",
          "type": "string"
        },
        {
          "internalType": "uint256",
          "name": "dateOfBirth",
          "type": "uint256"
        },
        {
          "internalType": "uint256",
          "name": "issueDate",
          "type": "uint256"
        },
        {
          "internalType": "uint256",
          "name": "socialSecurityNumber",
          "type": "uint256"
        },
        {
          "internalType": "uint256",
          "name": "driversLicenceNumber",
          "type": "uint256"
        }
      ],
      "stateMutability": "view",
      "type": "function"
    },
    {
      "inputs": [
        {
          "internalType": "address",
          "name": "user",
          "type": "address"
        }
      ],
      "name": "getPassportId",
      "outputs": [
        {
          "internalType": "uint256",
          "name": "",
          "type": "uint256"
        }
      ],
      "stateMutability": "view",
      "type": "function"
    },
    {
      "inputs": [
        {
          "internalType": "address",
          "name": "user",
          "type": "address"
        }
      ],
      "name": "getStamps",
      "outputs": [
        {
          "internalType": "bytes32[]",
          "name": "stamps",
          "type": "bytes32[]"
        }
      ],
      "stateMutability": "view",
      "type": "function"
    },
    {
      "inputs": [
        {
          "internalType": "address",
          "name": "owner",
          "type": "address"
        },
        {
          "internalType": "address",
          "name": "operator",
          "type": "address"
        }
      ],
      "name": "isApprovedForAll",
      "outputs": [
        {
          "internalType": "bool",
          "name": "",
          "type": "bool"
        }
      ],
      "stateMutability": "view",
      "type": "function"
    },
    {
      "inputs": [],
      "name": "name",
      "outputs": [
        {
          "internalType": "string",
          "name": "",
          "type": "string"
        }
      ],
      "stateMutability": "view",
      "type": "function"
    },
    {
      "inputs": [
        {
          "internalType": "uint256",
          "name": "tokenId",
          "type": "uint256"
        }
      ],
      "name": "ownerOf",
      "outputs": [
        {
          "internalType": "address",
          "name": "",
          "type": "address"
        }
      ],
      "stateMutability": "view",
      "type": "function"
    },
    {
      "inputs": [
        {
          "internalType": "address",
          "name": "from",
          "type": "address"
        },
        {
          "internalType": "address",
          "name": "to",
          "type": "address"
        },
        {
          "internalType": "uint256",
          "name": "tokenId",
          "type": "uint256"
        }
      ],
      "name": "safeTransferFrom",
      "outputs": [],
      "stateMutability": "nonpayable",
      "type": "function"
    },
    {
      "inputs": [
        {
          "internalType": "address",
          "name": "from",
          "type": "address"
        },
        {
          "internalType": "address",
          "name": "to",
          "type": "address"
        },
        {
          "internalType": "uint256",
          "name": "tokenId",
          "type": "uint256"
        },
        {
          "internalType": "bytes",
          "name": "data",
          "type": "bytes"
        }
      ],
      "name": "safeTransferFrom",
      "outputs": [],
      "stateMutability": "nonpayable",
      "type": "function"
    },
    {
      "inputs": [],
      "name": "schemaUID",
      "outputs": [
        {
          "internalType": "bytes32",
          "name": "",
          "type": "bytes32"
        }
      ],
      "stateMutability": "view",
      "type": "function"
    },
    {
      "inputs": [
        {
          "internalType": "address",
          "name": "operator",
          "type": "address"
        },
        {
          "internalType": "bool",
          "name": "approved",
          "type": "bool"
        }
      ],
      "name": "setApprovalForAll",
      "outputs": [],
      "stateMutability": "nonpayable",
      "type": "function"
    },
    {
      "inputs": [
        {
          "internalType": "bytes4",
          "name": "interfaceId",
          "type": "bytes4"
        }
      ],
      "name": "supportsInterface",
      "outputs": [
        {
          "internalType": "bool",
          "name": "",
          "type": "bool"
        }
      ],
      "stateMutability": "view",
      "type": "function"
    },
    {
      "inputs": [],
      "name": "symbol",
      "outputs": [
        {
          "internalType": "string",
          "name": "",
          "type": "string"
        }
      ],
      "stateMutability": "view",
      "type": "function"
    },
    {
      "inputs": [
        {
          "internalType": "uint256",
          "name": "tokenId",
          "type": "uint256"
        }
      ],
      "name": "tokenURI",
      "outputs": [
        {
          "internalType": "string",
          "name": "",
          "type": "string"
        }
      ],
      "stateMutability": "view",
      "type": "function"
    },
    {
      "inputs": [
        {
          "internalType": "address",
          "name": "from",
          "type": "address"
        },
        {
          "internalType": "address",
          "name": "to",
          "type": "address"
        },
        {
          "internalType": "uint256",
          "name": "tokenId",
          "type": "uint256"
        }
      ],
      "name": "transferFrom",
      "outputs": [],
      "stateMutability": "nonpayable",
      "type": "function"
    }
  ],
  "bytecode": {
    "object": "0x60c06040523480156200001157600080fd5b506040516200233e3803806200233e8339810160408190526200003491620000b1565b81816040518060400160405280600b81526020016a14185cdcdc1bdc9d13919560aa1b815250604051806040016040528060038152602001624d544b60e81b815250816000908162000087919062000192565b50600162000096828262000192565b5050506080526001600160a01b031660a052506200025e9050565b60008060408385031215620000c557600080fd5b82516001600160a01b0381168114620000dd57600080fd5b6020939093015192949293505050565b634e487b7160e01b600052604160045260246000fd5b600181811c908216806200011857607f821691505b6020821081036200013957634e487b7160e01b600052602260045260246000fd5b50919050565b601f8211156200018d57600081815260208120601f850160051c81016020861015620001685750805b601f850160051c820191505b81811015620001895782815560010162000174565b5050505b505050565b81516001600160401b03811115620001ae57620001ae620000ed565b620001c681620001bf845462000103565b846200013f565b602080601f831160018114620001fe5760008415620001e55750858301515b600019600386901b1c1916600185901b17855562000189565b600085815260208120601f198616915b828110156200022f578886015182559484019460019091019084016200020e565b50858210156200024e5787850151600019600388901b60f8161c191681555b5050505050600190811b01905550565b60805160a0516120b36200028b600039600061119b0152600081816102df01526111d501526120b36000f3fe608060405234801561001057600080fd5b50600436106101215760003560e01c806370a08231116100ad578063b88d4fde11610071578063b88d4fde1461028e578063c87b56dd146102a1578063e201100d146102b4578063e985e9c5146102c7578063f3de0506146102da57600080fd5b806370a08231146102335780638eb20b0b1461024657806395d89b4114610260578063a22cb46514610268578063b05e51581461027b57600080fd5b806310a943cf116100f457806310a943cf146101a35780631a371932146101da57806323b872dd146101fa57806342842e0e1461020d5780636352211e1461022057600080fd5b806301ffc9a71461012657806306fdde031461014e578063081812fc14610163578063095ea7b31461018e575b600080fd5b6101396101343660046118c1565b610301565b60405190151581526020015b60405180910390f35b610156610312565b604051610145919061192e565b610176610171366004611941565b6103a4565b6040516001600160a01b039091168152602001610145565b6101a161019c366004611976565b6103cd565b005b6101cc6101b13660046119a0565b6001600160a01b031660009081526007602052604090205490565b604051908152602001610145565b6101ed6101e83660046119a0565b6103dc565b60405161014591906119bb565b6101a16102083660046119ff565b6105c2565b6101a161021b3660046119ff565b610610565b61017661022e366004611941565b61062b565b6101cc6102413660046119a0565b610636565b61024e610683565b60405161014596959493929190611a3b565b6101566108ac565b6101a1610276366004611a86565b6108bb565b6101a1610289366004611b97565b6108c6565b6101a161029c366004611c5b565b610a8f565b6101566102af366004611941565b610aac565b6101cc6102c2366004611cd7565b610ab7565b6101396102d5366004611d43565b610d35565b6101cc7f000000000000000000000000000000000000000000000000000000000000000081565b600061030c82610d63565b92915050565b60606000805461032190611d76565b80601f016020809104026020016040519081016040528092919081815260200182805461034d90611d76565b801561039a5780601f1061036f5761010080835404028352916020019161039a565b820191906000526020600020905b81548152906001019060200180831161037d57829003601f168201915b5050505050905090565b60006103af82610d88565b506000828152600460205260409020546001600160a01b031661030c565b6103d8828233610dc1565b5050565b6001600160a01b0381166000908152600760209081526040808320548084526008909252808320815160e0810190925280546060949291908290829061042190611d76565b80601f016020809104026020016040519081016040528092919081815260200182805461044d90611d76565b801561049a5780601f1061046f5761010080835404028352916020019161049a565b820191906000526020600020905b81548152906001019060200180831161047d57829003601f168201915b505050505081526020016001820180546104b390611d76565b80601f01602080910402602001604051908101604052809291908181526020018280546104df90611d76565b801561052c5780601f106105015761010080835404028352916020019161052c565b820191906000526020600020905b81548152906001019060200180831161050f57829003601f168201915b5050505050815260200160028201548152602001600382015481526020016004820154815260200160058201548152602001600682018054806020026020016040519081016040528092919081815260200182805480156105ac57602002820191906000526020600020905b815481526020019060010190808311610598575b5050509190925250505060c00151949350505050565b6001600160a01b038316158015906105e257506001600160a01b03821615155b1561060057604051630a515b3360e31b815260040160405180910390fd5b61060b838383610dce565b505050565b61060b83838360405180602001604052806000815250610a8f565b600061030c82610d88565b60006001600160a01b038216610667576040516322718ad960e21b8152600060048201526024015b60405180910390fd5b506001600160a01b031660009081526003602052604090205490565b3360009081526007602052604081205460609182918190819081908082036106be57604051630bc48fd160e21b815260040160405180910390fd5b600081815260086020526040808220815160e081019092528054829082906106e590611d76565b80601f016020809104026020016040519081016040528092919081815260200182805461071190611d76565b801561075e5780601f106107335761010080835404028352916020019161075e565b820191906000526020600020905b81548152906001019060200180831161074157829003601f168201915b5050505050815260200160018201805461077790611d76565b80601f01602080910402602001604051908101604052809291908181526020018280546107a390611d76565b80156107f05780601f106107c5576101008083540402835291602001916107f0565b820191906000526020600020905b8154815290600101906020018083116107d357829003601f168201915b50505050508152602001600282015481526020016003820154815260200160048201548152602001600582015481526020016006820180548060200260200160405190810160405280929190818152602001828054801561087057602002820191906000526020600020905b81548152602001906001019080831161085c575b5050509190925250508151602083015160408401516060850151608086015160a090960151939e929d50909b5099509297509550909350505050565b60606001805461032190611d76565b6103d8338383610e53565b33600090815260076020526040902054156108f45760405163844e958360e01b815260040160405180910390fd5b600060096000815461090590611db0565b9182905550604080516101006020601f8d01819004028201810190925260e081018b81529293509182918c908c9081908501838280828437600092019190915250505090825250604080516020601f8b0181900481028201810190925289815291810191908a908a9081908401838280828437600092018290525093855250505060208083018990524260408085019190915260608401899052608084018890528051838152808301825260a0909401939093528482526008905220815181906109cf9082611e25565b50602082015160018201906109e49082611e25565b5060408201516002820155606082015160038201556080820151600482015560a0820151600582015560c08201518051610a28916006840191602090910190611848565b5050336000818152600760205260409020839055610a47915082610ef2565b610a518183610f0c565b6040513381527f325b88bc4ac3fed38ad6d226bfb680c4dae1e2be7e3ca7865aff5ebad93ad6cf9060200160405180910390a1505050505050505050565b610a9a8484846105c2565b610aa684848484610f5c565b50505050565b606061030c82611085565b336000908152600760209081526040808320548084526008909252808320815160e0810190925280548492919082908290610af190611d76565b80601f0160208091040260200160405190810160405280929190818152602001828054610b1d90611d76565b8015610b6a5780601f10610b3f57610100808354040283529160200191610b6a565b820191906000526020600020905b815481529060010190602001808311610b4d57829003601f168201915b50505050508152602001600182018054610b8390611d76565b80601f0160208091040260200160405190810160405280929190818152602001828054610baf90611d76565b8015610bfc5780601f10610bd157610100808354040283529160200191610bfc565b820191906000526020600020905b815481529060010190602001808311610bdf57829003601f168201915b505050505081526020016002820154815260200160038201548152602001600482015481526020016005820154815260200160068201805480602002602001604051908101604052809291908181526020018280548015610c7c57602002820191906000526020600020905b815481526020019060010190808311610c68575b505050505081525050905081600003610ca857604051630bc48fd160e21b815260040160405180910390fd5b80515186141580610cd9575080518051602090910120604051610cce9089908990611ee5565b604051809103902014155b15610cf7576040516323add05560e21b815260040160405180910390fd5b610d05338888888842611196565b60009283526008602090815260408420600601805460018101825590855293209092018290555095945050505050565b6001600160a01b03918216600090815260056020908152604080832093909416825291909152205460ff1690565b60006001600160e01b03198216632483248360e11b148061030c575061030c826112d6565b6000818152600260205260408120546001600160a01b03168061030c57604051637e27328960e01b81526004810184905260240161065e565b61060b8383836001611326565b6001600160a01b038216610df857604051633250574960e11b81526000600482015260240161065e565b6000610e0583833361142c565b9050836001600160a01b0316816001600160a01b031614610aa6576040516364283d7b60e01b81526001600160a01b038086166004830152602482018490528216604482015260640161065e565b6001600160a01b038216610e8557604051630b61174360e31b81526001600160a01b038316600482015260240161065e565b6001600160a01b03838116600081815260056020908152604080832094871680845294825291829020805460ff191686151590811790915591519182527f17307eab39ab6107e8899845ad3d59bd9653f200f220920489ca2b5937696c31910160405180910390a3505050565b6103d8828260405180602001604052806000815250611525565b6000828152600660205260409020610f248282611e25565b506040518281527ff8e1a15aba9398e019f0b49df1a4fde98ee17ae345cb5f6b5e2c27f5033e8ce79060200160405180910390a15050565b6001600160a01b0383163b15610aa657604051630a85bd0160e11b81526001600160a01b0384169063150b7a0290610f9e903390889087908790600401611ef5565b6020604051808303816000875af1925050508015610fd9575060408051601f3d908101601f19168201909252610fd691810190611f32565b60015b611042573d808015611007576040519150601f19603f3d011682016040523d82523d6000602084013e61100c565b606091505b50805160000361103a57604051633250574960e11b81526001600160a01b038516600482015260240161065e565b805181602001fd5b6001600160e01b03198116630a85bd0160e11b1461107e57604051633250574960e11b81526001600160a01b038516600482015260240161065e565b5050505050565b606061109082610d88565b50600082815260066020526040812080546110aa90611d76565b80601f01602080910402602001604051908101604052809291908181526020018280546110d690611d76565b80156111235780601f106110f857610100808354040283529160200191611123565b820191906000526020600020905b81548152906001019060200180831161110657829003601f168201915b50505050509050600061114160408051602081019091526000815290565b90508051600003611153575092915050565b81511561118557808260405160200161116d929190611f4f565b60405160208183030381529060405292505050919050565b61118e8461153c565b949350505050565b6000807f00000000000000000000000000000000000000000000000000000000000000006001600160a01b031663f17325e760405180604001604052807f000000000000000000000000000000000000000000000000000000000000000081526020016040518060c001604052808d6001600160a01b03168152602001600067ffffffffffffffff1681526020016000151581526020016000801b81526020018c8c8c8c8c60405160200161124f959493929190611fa7565b604051602081830303815290604052815260200160008152508152506040518263ffffffff1660e01b81526004016112879190611fe1565b6020604051808303816000875af11580156112a6573d6000803e3d6000fd5b505050506040513d601f19601f820116820180604052508101906112ca9190612064565b98975050505050505050565b60006001600160e01b031982166380ac58cd60e01b148061130757506001600160e01b03198216635b5e139f60e01b145b8061030c57506301ffc9a760e01b6001600160e01b031983161461030c565b808061133a57506001600160a01b03821615155b156113fc57600061134a84610d88565b90506001600160a01b038316158015906113765750826001600160a01b0316816001600160a01b031614155b801561138957506113878184610d35565b155b156113b25760405163a9fbf51f60e01b81526001600160a01b038416600482015260240161065e565b81156113fa5783856001600160a01b0316826001600160a01b03167f8c5be1e5ebec7d5bd14f71427d1e84f3dd0314c0f7b2291e5b200ac8c7c3b92560405160405180910390a45b505b5050600090815260046020526040902080546001600160a01b0319166001600160a01b0392909216919091179055565b6000828152600260205260408120546001600160a01b0390811690831615611459576114598184866115b1565b6001600160a01b0381161561149757611476600085600080611326565b6001600160a01b038116600090815260036020526040902080546000190190555b6001600160a01b038516156114c6576001600160a01b0385166000908152600360205260409020805460010190555b60008481526002602052604080822080546001600160a01b0319166001600160a01b0389811691821790925591518793918516917fddf252ad1be2c89b69c2b068fc378daa952ba7f163c4a11628f55a4df523b3ef91a4949350505050565b61152f8383611615565b61060b6000848484610f5c565b606061154782610d88565b50600061155f60408051602081019091526000815290565b9050600081511161157f57604051806020016040528060008152506115aa565b806115898461167a565b60405160200161159a929190611f4f565b6040516020818303038152906040525b9392505050565b6115bc83838361170d565b61060b576001600160a01b0383166115ea57604051637e27328960e01b81526004810182905260240161065e565b60405163177e802f60e01b81526001600160a01b03831660048201526024810182905260440161065e565b6001600160a01b03821661163f57604051633250574960e11b81526000600482015260240161065e565b600061164d8383600061142c565b90506001600160a01b0381161561060b576040516339e3563760e11b81526000600482015260240161065e565b6060600061168783611770565b600101905060008167ffffffffffffffff8111156116a7576116a7611b0b565b6040519080825280601f01601f1916602001820160405280156116d1576020820181803683370190505b5090508181016020015b600019016f181899199a1a9b1b9c1cb0b131b232b360811b600a86061a8153600a85049450846116db57509392505050565b60006001600160a01b0383161580159061118e5750826001600160a01b0316846001600160a01b0316148061174757506117478484610d35565b8061118e5750506000908152600460205260409020546001600160a01b03908116911614919050565b60008072184f03e93ff9f4daa797ed6e38ed64bf6a1f0160401b83106117af5772184f03e93ff9f4daa797ed6e38ed64bf6a1f0160401b830492506040015b6d04ee2d6d415b85acef810000000083106117db576d04ee2d6d415b85acef8100000000830492506020015b662386f26fc1000083106117f957662386f26fc10000830492506010015b6305f5e1008310611811576305f5e100830492506008015b612710831061182557612710830492506004015b60648310611837576064830492506002015b600a831061030c5760010192915050565b828054828255906000526020600020908101928215611883579160200282015b82811115611883578251825591602001919060010190611868565b5061188f929150611893565b5090565b5b8082111561188f5760008155600101611894565b6001600160e01b0319811681146118be57600080fd5b50565b6000602082840312156118d357600080fd5b81356115aa816118a8565b60005b838110156118f95781810151838201526020016118e1565b50506000910152565b6000815180845261191a8160208601602086016118de565b601f01601f19169290920160200192915050565b6020815260006115aa6020830184611902565b60006020828403121561195357600080fd5b5035919050565b80356001600160a01b038116811461197157600080fd5b919050565b6000806040838503121561198957600080fd5b6119928361195a565b946020939093013593505050565b6000602082840312156119b257600080fd5b6115aa8261195a565b6020808252825182820181905260009190848201906040850190845b818110156119f3578351835292840192918401916001016119d7565b50909695505050505050565b600080600060608486031215611a1457600080fd5b611a1d8461195a565b9250611a2b6020850161195a565b9150604084013590509250925092565b60c081526000611a4e60c0830189611902565b8281036020840152611a608189611902565b9150508560408301528460608301528360808301528260a0830152979650505050505050565b60008060408385031215611a9957600080fd5b611aa28361195a565b915060208301358015158114611ab757600080fd5b809150509250929050565b60008083601f840112611ad457600080fd5b50813567ffffffffffffffff811115611aec57600080fd5b602083019150836020828501011115611b0457600080fd5b9250929050565b634e487b7160e01b600052604160045260246000fd5b600067ffffffffffffffff80841115611b3c57611b3c611b0b565b604051601f8501601f19908116603f01168101908282118183101715611b6457611b64611b0b565b81604052809350858152868686011115611b7d57600080fd5b858560208301376000602087830101525050509392505050565b60008060008060008060008060c0898b031215611bb357600080fd5b883567ffffffffffffffff80821115611bcb57600080fd5b611bd78c838d01611ac2565b909a50985060208b0135915080821115611bf057600080fd5b611bfc8c838d01611ac2565b909850965060408b0135955060608b0135945060808b0135935060a08b0135915080821115611c2a57600080fd5b508901601f81018b13611c3c57600080fd5b611c4b8b823560208401611b21565b9150509295985092959890939650565b60008060008060808587031215611c7157600080fd5b611c7a8561195a565b9350611c886020860161195a565b925060408501359150606085013567ffffffffffffffff811115611cab57600080fd5b8501601f81018713611cbc57600080fd5b611ccb87823560208401611b21565b91505092959194509250565b60008060008060408587031215611ced57600080fd5b843567ffffffffffffffff80821115611d0557600080fd5b611d1188838901611ac2565b90965094506020870135915080821115611d2a57600080fd5b50611d3787828801611ac2565b95989497509550505050565b60008060408385031215611d5657600080fd5b611d5f8361195a565b9150611d6d6020840161195a565b90509250929050565b600181811c90821680611d8a57607f821691505b602082108103611daa57634e487b7160e01b600052602260045260246000fd5b50919050565b600060018201611dd057634e487b7160e01b600052601160045260246000fd5b5060010190565b601f82111561060b57600081815260208120601f850160051c81016020861015611dfe5750805b601f850160051c820191505b81811015611e1d57828155600101611e0a565b505050505050565b815167ffffffffffffffff811115611e3f57611e3f611b0b565b611e5381611e4d8454611d76565b84611dd7565b602080601f831160018114611e885760008415611e705750858301515b600019600386901b1c1916600185901b178555611e1d565b600085815260208120601f198616915b82811015611eb757888601518255948401946001909101908401611e98565b5085821015611ed55787850151600019600388901b60f8161c191681555b5050505050600190811b01905550565b8183823760009101908152919050565b6001600160a01b0385811682528416602082015260408101839052608060608201819052600090611f2890830184611902565b9695505050505050565b600060208284031215611f4457600080fd5b81516115aa816118a8565b60008351611f618184602088016118de565b835190830190611f758183602088016118de565b01949350505050565b81835281816020850137506000828201602090810191909152601f909101601f19169091010190565b606081526000611fbb606083018789611f7e565b8281036020840152611fce818688611f7e565b9150508260408301529695505050505050565b60208152815160208201526000602083015160408084015260018060a01b03815116606084015267ffffffffffffffff60208201511660808401526040810151151560a0840152606081015160c0840152608081015160c060e085015261204c610120850182611902565b905060a0820151610100850152809250505092915050565b60006020828403121561207657600080fd5b505191905056fea26469706673582212204f6e5fbb976cf5f2d01d3e73bd546b071f3d2565e24be8e0b4ec00d50e37890264736f6c63430008150033",
    "linkReferences": {}
  },
  "methodIdentifiers": {
    "approve(address,uint256)": "095ea7b3",
    "balanceOf(address)": "70a08231",
    "createPassport(string,string,uint256,uint256,uint256,string)": "b05e5158",
    "createStamp(string,string)": "e201100d",
    "getApproved(uint256)": "081812fc",
    "getPassport()": "8eb20b0b",
    "getPassportId(address)": "10a943cf",
    "getStamps(address)": "1a371932",
    "isApprovedForAll(address,address)": "e985e9c5",
    "name()": "06fdde03",
    "ownerOf(uint256)": "6352211e",
    "safeTransferFrom(address,address,uint256)": "42842e0e",
    "safeTransferFrom(address,address,uint256,bytes)": "b88d4fde",
    "schemaUID()": "f3de0506",
    "setApprovalForAll(address,bool)": "a22cb465",
    "supportsInterface(bytes4)": "01ffc9a7",
    "symbol()": "95d89b41",
    "tokenURI(uint256)": "c87b56dd",
    "transferFrom(address,address,uint256)": "23b872dd"
  },
  "id": 54
}