{
  "abi": [
    {
      "inputs": [
        {
          "internalType": "contract ISchemaRegistry",
          "name": "registry",
          "type": "address"
        }
      ],
      "stateMutability": "nonpayable",
      "type": "constructor"
    },
    {
      "inputs": [],
      "name": "AccessDenied",
      "type": "error"
    },
    {
      "inputs": [
        {
          "internalType": "address",
          "name": "account",
          "type": "address"
        }
      ],
      "name": "AddressInsufficientBalance",
      "type": "error"
    },
    {
      "inputs": [],
      "name": "AlreadyRevoked",
      "type": "error"
    },
    {
      "inputs": [],
      "name": "AlreadyRevokedOffchain",
      "type": "error"
    },
    {
      "inputs": [],
      "name": "AlreadyTimestamped",
      "type": "error"
    },
    {
      "inputs": [],
      "name": "DeadlineExpired",
      "type": "error"
    },
    {
      "inputs": [],
      "name": "FailedInnerCall",
      "type": "error"
    },
    {
      "inputs": [],
      "name": "InsufficientValue",
      "type": "error"
    },
    {
      "inputs": [],
      "name": "InvalidAttestation",
      "type": "error"
    },
    {
      "inputs": [],
      "name": "InvalidAttestations",
      "type": "error"
    },
    {
      "inputs": [],
      "name": "InvalidExpirationTime",
      "type": "error"
    },
    {
      "inputs": [],
      "name": "InvalidLength",
      "type": "error"
    },
    {
      "inputs": [],
      "name": "InvalidNonce",
      "type": "error"
    },
    {
      "inputs": [],
      "name": "InvalidOffset",
      "type": "error"
    },
    {
      "inputs": [],
      "name": "InvalidRegistry",
      "type": "error"
    },
    {
      "inputs": [],
      "name": "InvalidRevocation",
      "type": "error"
    },
    {
      "inputs": [],
      "name": "InvalidRevocations",
      "type": "error"
    },
    {
      "inputs": [],
      "name": "InvalidSchema",
      "type": "error"
    },
    {
      "inputs": [],
      "name": "InvalidShortString",
      "type": "error"
    },
    {
      "inputs": [],
      "name": "InvalidSignature",
      "type": "error"
    },
    {
      "inputs": [],
      "name": "InvalidVerifier",
      "type": "error"
    },
    {
      "inputs": [],
      "name": "Irrevocable",
      "type": "error"
    },
    {
      "inputs": [],
      "name": "NotFound",
      "type": "error"
    },
    {
      "inputs": [],
      "name": "NotPayable",
      "type": "error"
    },
    {
      "inputs": [
        {
          "internalType": "string",
          "name": "str",
          "type": "string"
        }
      ],
      "name": "StringTooLong",
      "type": "error"
    },
    {
      "inputs": [],
      "name": "WrongSchema",
      "type": "error"
    },
    {
      "anonymous": false,
      "inputs": [
        {
          "indexed": true,
          "internalType": "address",
          "name": "recipient",
          "type": "address"
        },
        {
          "indexed": true,
          "internalType": "address",
          "name": "attester",
          "type": "address"
        },
        {
          "indexed": false,
          "internalType": "bytes32",
          "name": "uid",
          "type": "bytes32"
        },
        {
          "indexed": true,
          "internalType": "bytes32",
          "name": "schemaUID",
          "type": "bytes32"
        }
      ],
      "name": "Attested",
      "type": "event"
    },
    {
      "anonymous": false,
      "inputs": [],
      "name": "EIP712DomainChanged",
      "type": "event"
    },
    {
      "anonymous": false,
      "inputs": [
        {
          "indexed": false,
          "internalType": "uint256",
          "name": "oldNonce",
          "type": "uint256"
        },
        {
          "indexed": false,
          "internalType": "uint256",
          "name": "newNonce",
          "type": "uint256"
        }
      ],
      "name": "NonceIncreased",
      "type": "event"
    },
    {
      "anonymous": false,
      "inputs": [
        {
          "indexed": true,
          "internalType": "address",
          "name": "recipient",
          "type": "address"
        },
        {
          "indexed": true,
          "internalType": "address",
          "name": "attester",
          "type": "address"
        },
        {
          "indexed": false,
          "internalType": "bytes32",
          "name": "uid",
          "type": "bytes32"
        },
        {
          "indexed": true,
          "internalType": "bytes32",
          "name": "schemaUID",
          "type": "bytes32"
        }
      ],
      "name": "Revoked",
      "type": "event"
    },
    {
      "anonymous": false,
      "inputs": [
        {
          "indexed": true,
          "internalType": "address",
          "name": "revoker",
          "type": "address"
        },
        {
          "indexed": true,
          "internalType": "bytes32",
          "name": "data",
          "type": "bytes32"
        },
        {
          "indexed": true,
          "internalType": "uint64",
          "name": "timestamp",
          "type": "uint64"
        }
      ],
      "name": "RevokedOffchain",
      "type": "event"
    },
    {
      "anonymous": false,
      "inputs": [
        {
          "indexed": true,
          "internalType": "bytes32",
          "name": "data",
          "type": "bytes32"
        },
        {
          "indexed": true,
          "internalType": "uint64",
          "name": "timestamp",
          "type": "uint64"
        }
      ],
      "name": "Timestamped",
      "type": "event"
    },
    {
      "inputs": [
        {
          "components": [
            {
              "internalType": "bytes32",
              "name": "schema",
              "type": "bytes32"
            },
            {
              "components": [
                {
                  "internalType": "address",
                  "name": "recipient",
                  "type": "address"
                },
                {
                  "internalType": "uint64",
                  "name": "expirationTime",
                  "type": "uint64"
                },
                {
                  "internalType": "bool",
                  "name": "revocable",
                  "type": "bool"
                },
                {
                  "internalType": "bytes32",
                  "name": "refUID",
                  "type": "bytes32"
                },
                {
                  "internalType": "bytes",
                  "name": "data",
                  "type": "bytes"
                },
                {
                  "internalType": "uint256",
                  "name": "value",
                  "type": "uint256"
                }
              ],
              "internalType": "struct AttestationRequestData",
              "name": "data",
              "type": "tuple"
            }
          ],
          "internalType": "struct AttestationRequest",
          "name": "request",
          "type": "tuple"
        }
      ],
      "name": "attest",
      "outputs": [
        {
          "internalType": "bytes32",
          "name": "",
          "type": "bytes32"
        }
      ],
      "stateMutability": "payable",
      "type": "function"
    },
    {
      "inputs": [
        {
          "components": [
            {
              "internalType": "bytes32",
              "name": "schema",
              "type": "bytes32"
            },
            {
              "components": [
                {
                  "internalType": "address",
                  "name": "recipient",
                  "type": "address"
                },
                {
                  "internalType": "uint64",
                  "name": "expirationTime",
                  "type": "uint64"
                },
                {
                  "internalType": "bool",
                  "name": "revocable",
                  "type": "bool"
                },
                {
                  "internalType": "bytes32",
                  "name": "refUID",
                  "type": "bytes32"
                },
                {
                  "internalType": "bytes",
                  "name": "data",
                  "type": "bytes"
                },
                {
                  "internalType": "uint256",
                  "name": "value",
                  "type": "uint256"
                }
              ],
              "internalType": "struct AttestationRequestData",
              "name": "data",
              "type": "tuple"
            },
            {
              "components": [
                {
                  "internalType": "uint8",
                  "name": "v",
                  "type": "uint8"
                },
                {
                  "internalType": "bytes32",
                  "name": "r",
                  "type": "bytes32"
                },
                {
                  "internalType": "bytes32",
                  "name": "s",
                  "type": "bytes32"
                }
              ],
              "internalType": "struct Signature",
              "name": "signature",
              "type": "tuple"
            },
            {
              "internalType": "address",
              "name": "attester",
              "type": "address"
            },
            {
              "internalType": "uint64",
              "name": "deadline",
              "type": "uint64"
            }
          ],
          "internalType": "struct DelegatedAttestationRequest",
          "name": "delegatedRequest",
          "type": "tuple"
        }
      ],
      "name": "attestByDelegation",
      "outputs": [
        {
          "internalType": "bytes32",
          "name": "",
          "type": "bytes32"
        }
      ],
      "stateMutability": "payable",
      "type": "function"
    },
    {
      "inputs": [],
      "name": "eip712Domain",
      "outputs": [
        {
          "internalType": "bytes1",
          "name": "fields",
          "type": "bytes1"
        },
        {
          "internalType": "string",
          "name": "name",
          "type": "string"
        },
        {
          "internalType": "string",
          "name": "version",
          "type": "string"
        },
        {
          "internalType": "uint256",
          "name": "chainId",
          "type": "uint256"
        },
        {
          "internalType": "address",
          "name": "verifyingContract",
          "type": "address"
        },
        {
          "internalType": "bytes32",
          "name": "salt",
          "type": "bytes32"
        },
        {
          "internalType": "uint256[]",
          "name": "extensions",
          "type": "uint256[]"
        }
      ],
      "stateMutability": "view",
      "type": "function"
    },
    {
      "inputs": [],
      "name": "getAttestTypeHash",
      "outputs": [
        {
          "internalType": "bytes32",
          "name": "",
          "type": "bytes32"
        }
      ],
      "stateMutability": "pure",
      "type": "function"
    },
    {
      "inputs": [
        {
          "internalType": "bytes32",
          "name": "uid",
          "type": "bytes32"
        }
      ],
      "name": "getAttestation",
      "outputs": [
        {
          "components": [
            {
              "internalType": "bytes32",
              "name": "uid",
              "type": "bytes32"
            },
            {
              "internalType": "bytes32",
              "name": "schema",
              "type": "bytes32"
            },
            {
              "internalType": "uint64",
              "name": "time",
              "type": "uint64"
            },
            {
              "internalType": "uint64",
              "name": "expirationTime",
              "type": "uint64"
            },
            {
              "internalType": "uint64",
              "name": "revocationTime",
              "type": "uint64"
            },
            {
              "internalType": "bytes32",
              "name": "refUID",
              "type": "bytes32"
            },
            {
              "internalType": "address",
              "name": "recipient",
              "type": "address"
            },
            {
              "internalType": "address",
              "name": "attester",
              "type": "address"
            },
            {
              "internalType": "bool",
              "name": "revocable",
              "type": "bool"
            },
            {
              "internalType": "bytes",
              "name": "data",
              "type": "bytes"
            }
          ],
          "internalType": "struct Attestation",
          "name": "",
          "type": "tuple"
        }
      ],
      "stateMutability": "view",
      "type": "function"
    },
    {
      "inputs": [],
      "name": "getDomainSeparator",
      "outputs": [
        {
          "internalType": "bytes32",
          "name": "",
          "type": "bytes32"
        }
      ],
      "stateMutability": "view",
      "type": "function"
    },
    {
      "inputs": [],
      "name": "getName",
      "outputs": [
        {
          "internalType": "string",
          "name": "",
          "type": "string"
        }
      ],
      "stateMutability": "view",
      "type": "function"
    },
    {
      "inputs": [
        {
          "internalType": "address",
          "name": "account",
          "type": "address"
        }
      ],
      "name": "getNonce",
      "outputs": [
        {
          "internalType": "uint256",
          "name": "",
          "type": "uint256"
        }
      ],
      "stateMutability": "view",
      "type": "function"
    },
    {
      "inputs": [
        {
          "internalType": "address",
          "name": "revoker",
          "type": "address"
        },
        {
          "internalType": "bytes32",
          "name": "data",
          "type": "bytes32"
        }
      ],
      "name": "getRevokeOffchain",
      "outputs": [
        {
          "internalType": "uint64",
          "name": "",
          "type": "uint64"
        }
      ],
      "stateMutability": "view",
      "type": "function"
    },
    {
      "inputs": [],
      "name": "getRevokeTypeHash",
      "outputs": [
        {
          "internalType": "bytes32",
          "name": "",
          "type": "bytes32"
        }
      ],
      "stateMutability": "pure",
      "type": "function"
    },
    {
      "inputs": [],
      "name": "getSchemaRegistry",
      "outputs": [
        {
          "internalType": "contract ISchemaRegistry",
          "name": "",
          "type": "address"
        }
      ],
      "stateMutability": "view",
      "type": "function"
    },
    {
      "inputs": [
        {
          "internalType": "bytes32",
          "name": "data",
          "type": "bytes32"
        }
      ],
      "name": "getTimestamp",
      "outputs": [
        {
          "internalType": "uint64",
          "name": "",
          "type": "uint64"
        }
      ],
      "stateMutability": "view",
      "type": "function"
    },
    {
      "inputs": [
        {
          "internalType": "uint256",
          "name": "newNonce",
          "type": "uint256"
        }
      ],
      "name": "increaseNonce",
      "outputs": [],
      "stateMutability": "nonpayable",
      "type": "function"
    },
    {
      "inputs": [
        {
          "internalType": "bytes32",
          "name": "uid",
          "type": "bytes32"
        }
      ],
      "name": "isAttestationValid",
      "outputs": [
        {
          "internalType": "bool",
          "name": "",
          "type": "bool"
        }
      ],
      "stateMutability": "view",
      "type": "function"
    },
    {
      "inputs": [
        {
          "components": [
            {
              "internalType": "bytes32",
              "name": "schema",
              "type": "bytes32"
            },
            {
              "components": [
                {
                  "internalType": "address",
                  "name": "recipient",
                  "type": "address"
                },
                {
                  "internalType": "uint64",
                  "name": "expirationTime",
                  "type": "uint64"
                },
                {
                  "internalType": "bool",
                  "name": "revocable",
                  "type": "bool"
                },
                {
                  "internalType": "bytes32",
                  "name": "refUID",
                  "type": "bytes32"
                },
                {
                  "internalType": "bytes",
                  "name": "data",
                  "type": "bytes"
                },
                {
                  "internalType": "uint256",
                  "name": "value",
                  "type": "uint256"
                }
              ],
              "internalType": "struct AttestationRequestData[]",
              "name": "data",
              "type": "tuple[]"
            }
          ],
          "internalType": "struct MultiAttestationRequest[]",
          "name": "multiRequests",
          "type": "tuple[]"
        }
      ],
      "name": "multiAttest",
      "outputs": [
        {
          "internalType": "bytes32[]",
          "name": "",
          "type": "bytes32[]"
        }
      ],
      "stateMutability": "payable",
      "type": "function"
    },
    {
      "inputs": [
        {
          "components": [
            {
              "internalType": "bytes32",
              "name": "schema",
              "type": "bytes32"
            },
            {
              "components": [
                {
                  "internalType": "address",
                  "name": "recipient",
                  "type": "address"
                },
                {
                  "internalType": "uint64",
                  "name": "expirationTime",
                  "type": "uint64"
                },
                {
                  "internalType": "bool",
                  "name": "revocable",
                  "type": "bool"
                },
                {
                  "internalType": "bytes32",
                  "name": "refUID",
                  "type": "bytes32"
                },
                {
                  "internalType": "bytes",
                  "name": "data",
                  "type": "bytes"
                },
                {
                  "internalType": "uint256",
                  "name": "value",
                  "type": "uint256"
                }
              ],
              "internalType": "struct AttestationRequestData[]",
              "name": "data",
              "type": "tuple[]"
            },
            {
              "components": [
                {
                  "internalType": "uint8",
                  "name": "v",
                  "type": "uint8"
                },
                {
                  "internalType": "bytes32",
                  "name": "r",
                  "type": "bytes32"
                },
                {
                  "internalType": "bytes32",
                  "name": "s",
                  "type": "bytes32"
                }
              ],
              "internalType": "struct Signature[]",
              "name": "signatures",
              "type": "tuple[]"
            },
            {
              "internalType": "address",
              "name": "attester",
              "type": "address"
            },
            {
              "internalType": "uint64",
              "name": "deadline",
              "type": "uint64"
            }
          ],
          "internalType": "struct MultiDelegatedAttestationRequest[]",
          "name": "multiDelegatedRequests",
          "type": "tuple[]"
        }
      ],
      "name": "multiAttestByDelegation",
      "outputs": [
        {
          "internalType": "bytes32[]",
          "name": "",
          "type": "bytes32[]"
        }
      ],
      "stateMutability": "payable",
      "type": "function"
    },
    {
      "inputs": [
        {
          "components": [
            {
              "internalType": "bytes32",
              "name": "schema",
              "type": "bytes32"
            },
            {
              "components": [
                {
                  "internalType": "bytes32",
                  "name": "uid",
                  "type": "bytes32"
                },
                {
                  "internalType": "uint256",
                  "name": "value",
                  "type": "uint256"
                }
              ],
              "internalType": "struct RevocationRequestData[]",
              "name": "data",
              "type": "tuple[]"
            }
          ],
          "internalType": "struct MultiRevocationRequest[]",
          "name": "multiRequests",
          "type": "tuple[]"
        }
      ],
      "name": "multiRevoke",
      "outputs": [],
      "stateMutability": "payable",
      "type": "function"
    },
    {
      "inputs": [
        {
          "components": [
            {
              "internalType": "bytes32",
              "name": "schema",
              "type": "bytes32"
            },
            {
              "components": [
                {
                  "internalType": "bytes32",
                  "name": "uid",
                  "type": "bytes32"
                },
                {
                  "internalType": "uint256",
                  "name": "value",
                  "type": "uint256"
                }
              ],
              "internalType": "struct RevocationRequestData[]",
              "name": "data",
              "type": "tuple[]"
            },
            {
              "components": [
                {
                  "internalType": "uint8",
                  "name": "v",
                  "type": "uint8"
                },
                {
                  "internalType": "bytes32",
                  "name": "r",
                  "type": "bytes32"
                },
                {
                  "internalType": "bytes32",
                  "name": "s",
                  "type": "bytes32"
                }
              ],
              "internalType": "struct Signature[]",
              "name": "signatures",
              "type": "tuple[]"
            },
            {
              "internalType": "address",
              "name": "revoker",
              "type": "address"
            },
            {
              "internalType": "uint64",
              "name": "deadline",
              "type": "uint64"
            }
          ],
          "internalType": "struct MultiDelegatedRevocationRequest[]",
          "name": "multiDelegatedRequests",
          "type": "tuple[]"
        }
      ],
      "name": "multiRevokeByDelegation",
      "outputs": [],
      "stateMutability": "payable",
      "type": "function"
    },
    {
      "inputs": [
        {
          "internalType": "bytes32[]",
          "name": "data",
          "type": "bytes32[]"
        }
      ],
      "name": "multiRevokeOffchain",
      "outputs": [
        {
          "internalType": "uint64",
          "name": "",
          "type": "uint64"
        }
      ],
      "stateMutability": "nonpayable",
      "type": "function"
    },
    {
      "inputs": [
        {
          "internalType": "bytes32[]",
          "name": "data",
          "type": "bytes32[]"
        }
      ],
      "name": "multiTimestamp",
      "outputs": [
        {
          "internalType": "uint64",
          "name": "",
          "type": "uint64"
        }
      ],
      "stateMutability": "nonpayable",
      "type": "function"
    },
    {
      "inputs": [
        {
          "components": [
            {
              "internalType": "bytes32",
              "name": "schema",
              "type": "bytes32"
            },
            {
              "components": [
                {
                  "internalType": "bytes32",
                  "name": "uid",
                  "type": "bytes32"
                },
                {
                  "internalType": "uint256",
                  "name": "value",
                  "type": "uint256"
                }
              ],
              "internalType": "struct RevocationRequestData",
              "name": "data",
              "type": "tuple"
            }
          ],
          "internalType": "struct RevocationRequest",
          "name": "request",
          "type": "tuple"
        }
      ],
      "name": "revoke",
      "outputs": [],
      "stateMutability": "payable",
      "type": "function"
    },
    {
      "inputs": [
        {
          "components": [
            {
              "internalType": "bytes32",
              "name": "schema",
              "type": "bytes32"
            },
            {
              "components": [
                {
                  "internalType": "bytes32",
                  "name": "uid",
                  "type": "bytes32"
                },
                {
                  "internalType": "uint256",
                  "name": "value",
                  "type": "uint256"
                }
              ],
              "internalType": "struct RevocationRequestData",
              "name": "data",
              "type": "tuple"
            },
            {
              "components": [
                {
                  "internalType": "uint8",
                  "name": "v",
                  "type": "uint8"
                },
                {
                  "internalType": "bytes32",
                  "name": "r",
                  "type": "bytes32"
                },
                {
                  "internalType": "bytes32",
                  "name": "s",
                  "type": "bytes32"
                }
              ],
              "internalType": "struct Signature",
              "name": "signature",
              "type": "tuple"
            },
            {
              "internalType": "address",
              "name": "revoker",
              "type": "address"
            },
            {
              "internalType": "uint64",
              "name": "deadline",
              "type": "uint64"
            }
          ],
          "internalType": "struct DelegatedRevocationRequest",
          "name": "delegatedRequest",
          "type": "tuple"
        }
      ],
      "name": "revokeByDelegation",
      "outputs": [],
      "stateMutability": "payable",
      "type": "function"
    },
    {
      "inputs": [
        {
          "internalType": "bytes32",
          "name": "data",
          "type": "bytes32"
        }
      ],
      "name": "revokeOffchain",
      "outputs": [
        {
          "internalType": "uint64",
          "name": "",
          "type": "uint64"
        }
      ],
      "stateMutability": "nonpayable",
      "type": "function"
    },
    {
      "inputs": [
        {
          "internalType": "bytes32",
          "name": "data",
          "type": "bytes32"
        }
      ],
      "name": "timestamp",
      "outputs": [
        {
          "internalType": "uint64",
          "name": "",
          "type": "uint64"
        }
      ],
      "stateMutability": "nonpayable",
      "type": "function"
    },
    {
      "inputs": [],
      "name": "version",
      "outputs": [
        {
          "internalType": "string",
          "name": "",
          "type": "string"
        }
      ],
      "stateMutability": "view",
      "type": "function"
    }
  ],
  "bytecode": {
    "object": "0x6101e06040523480156200001257600080fd5b506040516200419b3803806200419b83398101604081905262000035916200020c565b60408051808201825260038082526245415360e81b602080840191909152835180850190945260058452640312e332e360dc1b90840152600160805260a052600060c0819052909190829082906200008f90839062000187565b61018052620000a081600162000187565b6101a052815160208084019190912061014052815190820120610160524661010052620001316101405161016051604080517f8b73c3c69bb8fe3d512ecc4cf759cc79239f7b179b0ffacaa9a75d522b39400f60208201529081019290925260608201524660808201523060a082015260009060c00160405160208183030381529060405280519060200120905090565b60e052505030610120526002620001498382620002e3565b5050506001600160a01b03811662000174576040516311a1e69760e01b815260040160405180910390fd5b6001600160a01b03166101c05262000424565b6000602083511015620001a7576200019f83620001c0565b9050620001ba565b81620001b48482620002e3565b5060ff90505b92915050565b600080829050601f81511115620001f7578260405163305a27a960e01b8152600401620001ee9190620003af565b60405180910390fd5b80516200020482620003ff565b179392505050565b6000602082840312156200021f57600080fd5b81516001600160a01b03811681146200023757600080fd5b9392505050565b634e487b7160e01b600052604160045260246000fd5b600181811c908216806200026957607f821691505b6020821081036200028a57634e487b7160e01b600052602260045260246000fd5b50919050565b601f821115620002de57600081815260208120601f850160051c81016020861015620002b95750805b601f850160051c820191505b81811015620002da57828155600101620002c5565b5050505b505050565b81516001600160401b03811115620002ff57620002ff6200023e565b620003178162000310845462000254565b8462000290565b602080601f8311600181146200034f5760008415620003365750858301515b600019600386901b1c1916600185901b178555620002da565b600085815260208120601f198616915b8281101562000380578886015182559484019460019091019084016200035f565b50858210156200039f5787850151600019600388901b60f8161c191681555b5050505050600190811b01905550565b600060208083528351808285015260005b81811015620003de57858101830151858201604001528201620003c0565b506000604082860101526040601f19601f8301168501019250505092915050565b805160208083015191908110156200028a5760001960209190910360031b1b16919050565b60805160a05160c05160e05161010051610120516101405161016051610180516101a0516101c051613ce2620004b9600039600081816104de0152818161130b01526119ff01526000612115015260006120e801526000612215015260006121ed01526000612148015260006121720152600061219c01526000610b2101526000610af801526000610acf0152613ce26000f3fe6080604052600436106101665760003560e01c806384b0196e116100d1578063cf190f341161008a578063e71ff36511610064578063e71ff3651461048f578063ed24911d146104af578063f10b5cc8146104c4578063f17325e71461050857600080fd5b8063cf190f34146103fa578063d45c44351461041a578063e30bb5631461045057600080fd5b806384b0196e146103005780639541152514610328578063a3112a641461033b578063a6d4dbc714610368578063b469318d1461037b578063b83010d3146103c757600080fd5b806344adc90e1161012357806344adc90e1461026557806346926267146102855780634cb7e9e5146102985780634d003070146102ab57806354fd4d50146102cb57806379f7573a146102e057600080fd5b80630eabf6601461016b57806312b11a171461018057806313893f61146101c257806317d7de7c146101fa5780632d0335ab1461021c5780633c04271514610252575b600080fd5b61017e610179366004612dcc565b61051b565b005b34801561018c57600080fd5b507ffeb2925a02bae3dae48d424a0437a2b6ac939aa9230ddc55a1a76f065d9880765b6040519081526020015b60405180910390f35b3480156101ce57600080fd5b506101e26101dd366004612dcc565b61066d565b6040516001600160401b0390911681526020016101b9565b34801561020657600080fd5b5061020f6106b2565b6040516101b99190612e5d565b34801561022857600080fd5b506101af610237366004612e9c565b6001600160a01b031660009081526003602052604090205490565b6101af610260366004612eb9565b610744565b610278610273366004612dcc565b610829565b6040516101b99190612ef3565b61017e610293366004612f37565b610972565b61017e6102a6366004612dcc565b6109f6565b3480156102b757600080fd5b506101e26102c6366004612f4f565b610abb565b3480156102d757600080fd5b5061020f610ac8565b3480156102ec57600080fd5b5061017e6102fb366004612f4f565b610b6b565b34801561030c57600080fd5b50610315610beb565b6040516101b99796959493929190612fa3565b610278610336366004612dcc565b610c31565b34801561034757600080fd5b5061035b610356366004612f4f565b610e5e565b6040516101b991906130cf565b61017e6103763660046130e2565b610fa4565b34801561038757600080fd5b506101e26103963660046130f5565b6001600160a01b0391909116600090815260066020908152604080832093835292905220546001600160401b031690565b3480156103d357600080fd5b507fb5d556f07587ec0f08cf386545cc4362c702a001650c2058002615ee5c9d1e756101af565b34801561040657600080fd5b506101e2610415366004612f4f565b611049565b34801561042657600080fd5b506101e2610435366004612f4f565b6000908152600560205260409020546001600160401b031690565b34801561045c57600080fd5b5061047f61046b366004612f4f565b600090815260046020526040902054151590565b60405190151581526020016101b9565b34801561049b57600080fd5b506101e26104aa366004612dcc565b611057565b3480156104bb57600080fd5b506101af61108f565b3480156104d057600080fd5b506040516001600160a01b037f00000000000000000000000000000000000000000000000000000000000000001681526020016101b9565b6101af610516366004613121565b61109e565b348160005b81811015610666576000198201811460008686848181106105435761054361315b565b90506020028101906105559190613171565b61055e906133aa565b602081015180519192509080158061057b57508260400151518114155b156105995760405163251f56a160e21b815260040160405180910390fd5b60005b8181101561062f576106276040518060a00160405280866000015181526020018584815181106105ce576105ce61315b565b60200260200101518152602001866040015184815181106105f1576105f161315b565b6020026020010151815260200186606001516001600160a01b0316815260200186608001516001600160401b031681525061113e565b60010161059c565b5061064583600001518385606001518a886112e8565b61064f90886134ba565b96505050505061065f8160010190565b9050610520565b5050505050565b60004282825b818110156106a65761069e338787848181106106915761069161315b565b905060200201358561176c565b600101610673565b50909150505b92915050565b6060600280546106c1906134cd565b80601f01602080910402602001604051908101604052809291908181526020018280546106ed906134cd565b801561073a5780601f1061070f5761010080835404028352916020019161073a565b820191906000526020600020905b81548152906001019060200180831161071d57829003601f168201915b5050505050905090565b600061075761075283613603565b61181f565b604080516001808252818301909252600091816020015b6040805160c081018252600080825260208083018290529282018190526060808301829052608083015260a0820152825260001990920191018161076e5790505090506107be602084018461367d565b6107c790613693565b816000815181106107da576107da61315b565b60209081029190910101526108038335826107fb60c0870160a08801612e9c565b346001611973565b602001516000815181106108195761081961315b565b6020026020010151915050919050565b6060816000816001600160401b0381111561084657610846613191565b60405190808252806020026020018201604052801561087957816020015b60608152602001906001900390816108645790505b509050600034815b8481101561095c5760001985018114368989848181106108a3576108a361315b565b90506020028101906108b5919061369f565b90506108c460208201826136b5565b90506000036108e65760405163251f56a160e21b815260040160405180910390fd5b600061090b82356108fa60208501856136b5565b610903916136fe565b338887611973565b805190915061091a90866134ba565b945080602001518785815181106109335761093361315b565b6020026020010181905250806020015151860195505050506109558160010190565b9050610881565b506109678383611ed6565b979650505050505050565b604080516001808252818301909252600091816020015b60408051808201909152600080825260208201528152602001906001900390816109895790505090506109c436839003830160208401613771565b816000815181106109d7576109d761315b565b60209081029190910101526109f1823582333460016112e8565b505050565b348160005b81811015610666576000198201811436868684818110610a1d57610a1d61315b565b9050602002810190610a2f919061369f565b9050610a9c8135610a43602084018461378d565b808060200260200160405190810160405280939291908181526020016000905b82821015610a8f57610a8060408302860136819003810190613771565b81526020019060010190610a63565b50505050503388866112e8565b610aa690866134ba565b94505050610ab48160010190565b90506109fb565b6000426106ac8382611fbf565b6060610af37f000000000000000000000000000000000000000000000000000000000000000061204f565b610b1c7f000000000000000000000000000000000000000000000000000000000000000061204f565b610b457f000000000000000000000000000000000000000000000000000000000000000061204f565b604051602001610b57939291906137d6565b604051602081830303815290604052905090565b33600090815260036020526040902054808211610b9b57604051633ab3447f60e11b815260040160405180910390fd5b3360009081526003602090815260409182902084905581518381529081018490527f57b09af877df9068fd60a69d7b21f5576b8b38955812d6ae4ac52942f1e38fb7910160405180910390a15050565b600060608060008060006060610bff6120e1565b610c0761210e565b60408051600080825260208201909252600f60f81b9b939a50919850469750309650945092509050565b6060816000816001600160401b03811115610c4e57610c4e613191565b604051908082528060200260200182016040528015610c8157816020015b6060815260200190600190039081610c6c5790505b509050600034815b8481101561095c576000198501811436898984818110610cab57610cab61315b565b9050602002810190610cbd9190613171565b9050366000610ccf60208401846136b5565b909250905080801580610cf05750610cea6040850185613830565b90508114155b15610d0e5760405163251f56a160e21b815260040160405180910390fd5b60005b81811015610de157610dd96040518060a0016040528087600001358152602001868685818110610d4357610d4361315b565b9050602002810190610d55919061367d565b610d5e90613693565b8152602001610d706040890189613830565b85818110610d8057610d8061315b565b905060600201803603810190610d969190613878565b8152602001610dab6080890160608a01612e9c565b6001600160a01b03168152602001610dc960a0890160808a01613894565b6001600160401b0316905261181f565b600101610d11565b506000610e0a8535610df385876136fe565b610e036080890160608a01612e9c565b8b8a611973565b8051909150610e1990896134ba565b975080602001518a8881518110610e3257610e3261315b565b602002602001018190525080602001515189019850505050505050610e578160010190565b9050610c89565b610e66612d2b565b6000828152600460208181526040928390208351610140810185528154815260018201549281019290925260028101546001600160401b0380821695840195909552600160401b810485166060840152600160801b90049093166080820152600383015460a0820152908201546001600160a01b0390811660c0830152600583015490811660e0830152600160a01b900460ff16151561010082015260068201805491929161012084019190610f1b906134cd565b80601f0160208091040260200160405190810160405280929190818152602001828054610f47906134cd565b8015610f945780601f10610f6957610100808354040283529160200191610f94565b820191906000526020600020905b815481529060010190602001808311610f7757829003601f168201915b5050505050815250509050919050565b610fbb610fb6368390038301836138af565b61113e565b604080516001808252818301909252600091816020015b6040805180820190915260008082526020820152815260200190600190039081610fd257905050905061100d36839003830160208401613771565b816000815181106110205761102061315b565b60209081029190910101526109f182358261104160e0860160c08701612e9c565b3460016112e8565b6000426106ac33848361176c565b60004282825b818110156106a65761108786868381811061107a5761107a61315b565b9050602002013584611fbf565b60010161105d565b600061109961213b565b905090565b604080516001808252818301909252600091829190816020015b6040805160c081018252600080825260208083018290529282018190526060808301829052608083015260a082015282526000199092019101816110b8579050509050611108602084018461367d565b61111190613693565b816000815181106111245761112461315b565b602090810291909101015261080383358233346001611973565b60808101516001600160401b03161580159061116f5750426001600160401b031681608001516001600160401b0316105b1561118d57604051631ab7da6b60e01b815260040160405180910390fd5b602080820151604080840151606085015185518451858701516001600160a01b038416600090815260039098529487208054969794969495611267957fb5d556f07587ec0f08cf386545cc4362c702a001650c2058002615ee5c9d1e7595949392886111f88361391d565b909155506080808c01516040805160208101999099526001600160a01b039097169688019690965260608701949094529285019190915260a084015260c08301526001600160401b031660e0820152610100015b60405160208183030381529060405280519060200120612266565b90506112c58460600151828460200151856040015186600001516040516020016112b193929190928352602083019190915260f81b6001600160f81b031916604082015260410190565b604051602081830303815290604052612293565b6112e257604051638baa579f60e01b815260040160405180910390fd5b50505050565b6040516351753e3760e11b81526004810186905260009081906001600160a01b037f0000000000000000000000000000000000000000000000000000000000000000169063a2ea7c6e90602401600060405180830381865afa158015611352573d6000803e3d6000fd5b505050506040513d6000823e601f3d908101601f1916820160405261137a9190810190613936565b805190915061139c57604051635f9bd90760e11b815260040160405180910390fd5b85516000816001600160401b038111156113b8576113b8613191565b6040519080825280602002602001820160405280156113f157816020015b6113de612d2b565b8152602001906001900390816113d65790505b5090506000826001600160401b0381111561140e5761140e613191565b604051908082528060200260200182016040528015611437578160200160208202803683370190505b50905060005b8381101561174e5760008a82815181106114595761145961315b565b60209081029190910181015180516000908152600490925260409091208054919250906114995760405163c5723b5160e01b815260040160405180910390fd5b8c8160010154146114bd57604051635f9bd90760e11b815260040160405180910390fd5b60058101546001600160a01b038c81169116146114ed57604051634ca8886760e01b815260040160405180910390fd5b6005810154600160a01b900460ff166115195760405163157bd4c360e01b815260040160405180910390fd5b6002810154600160801b90046001600160401b03161561154c5760405163905e710760e01b815260040160405180910390fd5b4260028201805467ffffffffffffffff60801b198116600160801b6001600160401b03948516810291821793849055604080516101408101825287548152600188015460208201529386169286169290921791830191909152600160401b8304841660608301529091049091166080820152600382015460a082015260048201546001600160a01b0390811660c0830152600583015490811660e0830152600160a01b900460ff1615156101008201526006820180548391610120840191611613906134cd565b80601f016020809104026020016040519081016040528092919081815260200182805461163f906134cd565b801561168c5780601f106116615761010080835404028352916020019161168c565b820191906000526020600020905b81548152906001019060200180831161166f57829003601f168201915b5050505050815250508584815181106116a7576116a761315b565b602002602001018190525081602001518484815181106116c9576116c961315b565b6020026020010181815250508c8b6001600160a01b03168685815181106116f2576116f261315b565b602002602001015160c001516001600160a01b03167ff930a6e2523c9cc298691873087a740550b8fc85a0680830414c148ed927f615856000015160405161173c91815260200190565b60405180910390a4505060010161143d565b5061175e84838360018b8b6122f5565b9a9950505050505050505050565b6001600160a01b038316600090815260066020908152604080832085845291829052909120546001600160401b0316156117b95760405163ec9d6eeb60e01b815260040160405180910390fd5b600083815260208290526040808220805467ffffffffffffffff19166001600160401b0386169081179091559051909185916001600160a01b038816917f92a1f7a41a7c585a8b09e25b195e225b1d43248daca46b0faf9e0792777a222991a450505050565b60808101516001600160401b0316158015906118505750426001600160401b031681608001516001600160401b0316105b1561186e57604051631ab7da6b60e01b815260040160405180910390fd5b6020808201516040808401516060808601518651855186880151868801519488015160808901518051908b012060a08a01516001600160a01b03871660009081526003909c52988b2080549a9b989a9899611267997ffeb2925a02bae3dae48d424a0437a2b6ac939aa9230ddc55a1a76f065d988076999493928c6118f28361391d565b919050558e6080015160405160200161124c9b9a999897969594939291909a8b526001600160a01b03998a1660208c015260408b01989098529590971660608901526001600160401b03938416608089015291151560a088015260c087015260e0860152610100850193909352610120840152166101408201526101600190565b6040805180820190915260008152606060208201528451604080518082019091526000815260606020820152816001600160401b038111156119b7576119b7613191565b6040519080825280602002602001820160405280156119e0578160200160208202803683370190505b5060208201526040516351753e3760e11b8152600481018990526000907f00000000000000000000000000000000000000000000000000000000000000006001600160a01b03169063a2ea7c6e90602401600060405180830381865afa158015611a4e573d6000803e3d6000fd5b505050506040513d6000823e601f3d908101601f19168201604052611a769190810190613936565b8051909150611a9857604051635f9bd90760e11b815260040160405180910390fd5b6000836001600160401b03811115611ab257611ab2613191565b604051908082528060200260200182016040528015611aeb57816020015b611ad8612d2b565b815260200190600190039081611ad05790505b5090506000846001600160401b03811115611b0857611b08613191565b604051908082528060200260200182016040528015611b31578160200160208202803683370190505b50905060005b85811015611eb55760008b8281518110611b5357611b5361315b565b6020026020010151905060006001600160401b031681602001516001600160401b031614158015611b9a5750426001600160401b031681602001516001600160401b031611155b15611bb8576040516308e8b93760e01b815260040160405180910390fd5b8460400151158015611bcb575080604001515b15611be95760405163157bd4c360e01b815260040160405180910390fd5b60006040518061014001604052806000801b81526020018f8152602001611c0d4290565b6001600160401b0316815260200183602001516001600160401b0316815260200160006001600160401b031681526020018360600151815260200183600001516001600160a01b031681526020018d6001600160a01b0316815260200183604001511515815260200183608001518152509050600080600090505b611c928382612601565b60008181526004602052604090205490925015611cb157600101611c88565b8183526000828152600460208181526040928390208651815590860151600182015591850151600283018054606088015160808901516001600160401b03908116600160801b0267ffffffffffffffff60801b19928216600160401b026fffffffffffffffffffffffffffffffff199094169190951617919091171691909117905560a0850151600383015560c085015190820180546001600160a01b039283166001600160a01b031990911617905560e08501516005830180546101008801511515600160a01b026001600160a81b031990911692909316919091179190911790556101208401518491906006820190611dac9082613a5b565b505050606084015115611dea576060840151600090815260046020526040902054611dea5760405163c5723b5160e01b815260040160405180910390fd5b82878681518110611dfd57611dfd61315b565b60200260200101819052508360a00151868681518110611e1f57611e1f61315b565b6020026020010181815250508189602001518681518110611e4257611e4261315b565b6020026020010181815250508f8e6001600160a01b031685600001516001600160a01b03167f8bf46bf4cfd674fa735a3d63ec1c9ad4153f033c290341f3a588b75685141b3585604051611e9891815260200190565b60405180910390a450505050611eae8160010190565b9050611b37565b50611ec583838360008c8c6122f5565b845250919998505050505050505050565b60606000826001600160401b03811115611ef257611ef2613191565b604051908082528060200260200182016040528015611f1b578160200160208202803683370190505b508451909150600090815b81811015611fb4576000878281518110611f4257611f4261315b565b6020026020010151905060008151905060005b81811015611fa057828181518110611f6f57611f6f61315b565b6020026020010151878781518110611f8957611f8961315b565b602090810291909101015260019586019501611f55565b505050611fad8160010190565b9050611f26565b509195945050505050565b6000828152600560205260409020546001600160401b031615611ff5576040516317133ca360e11b815260040160405180910390fd5b600082815260056020526040808220805467ffffffffffffffff19166001600160401b0385169081179091559051909184917f5aafceeb1c7ad58e4a84898bdee37c02c0fc46e7d24e6b60e8209449f183459f9190a35050565b6060600061205c83612660565b60010190506000816001600160401b0381111561207b5761207b613191565b6040519080825280601f01601f1916602001820160405280156120a5576020820181803683370190505b5090508181016020015b600019016f181899199a1a9b1b9c1cb0b131b232b360811b600a86061a8153600a85049450846120af57509392505050565b60606110997f00000000000000000000000000000000000000000000000000000000000000006000612738565b60606110997f00000000000000000000000000000000000000000000000000000000000000006001612738565b6000306001600160a01b037f00000000000000000000000000000000000000000000000000000000000000001614801561219457507f000000000000000000000000000000000000000000000000000000000000000046145b156121be57507f000000000000000000000000000000000000000000000000000000000000000090565b611099604080517f8b73c3c69bb8fe3d512ecc4cf759cc79239f7b179b0ffacaa9a75d522b39400f60208201527f0000000000000000000000000000000000000000000000000000000000000000918101919091527f000000000000000000000000000000000000000000000000000000000000000060608201524660808201523060a082015260009060c00160405160208183030381529060405280519060200120905090565b60006106ac61227361213b565b8360405161190160f01b8152600281019290925260228201526042902090565b60008060006122a285856127e3565b50909250905060008160038111156122bc576122bc613b1a565b1480156122da5750856001600160a01b0316826001600160a01b0316145b806122eb57506122eb868686612830565b9695505050505050565b8451600090600181900361234d57612345888860008151811061231a5761231a61315b565b6020026020010151886000815181106123355761233561315b565b602002602001015188888861290b565b9150506122eb565b60208801516001600160a01b0381166123c85760005b828110156123ad5787818151811061237d5761237d61315b565b60200260200101516000146123a557604051631574f9f360e01b815260040160405180910390fd5b600101612363565b5083156123bd576123bd85612b47565b6000925050506122eb565b600080826001600160a01b031663ce46e0466040518163ffffffff1660e01b8152600401602060405180830381865afa158015612409573d6000803e3d6000fd5b505050506040513d601f19601f8201168201806040525081019061242d9190613b30565b905060005b848110156124b85760008a828151811061244e5761244e61315b565b602002602001015190508060000361246657506124b0565b8261248457604051631574f9f360e01b815260040160405180910390fd5b888111156124a55760405163044044a560e21b815260040160405180910390fd5b978890039792909201915b600101612432565b508715612554576040516388e5b2d960e01b81526001600160a01b038416906388e5b2d99084906124ef908e908e90600401613b4d565b60206040518083038185885af115801561250d573d6000803e3d6000fd5b50505050506040513d601f19601f820116820180604052508101906125329190613b30565b61254f5760405163bf2f3a8b60e01b815260040160405180910390fd5b6125e4565b6040516348ed85bf60e11b81526001600160a01b038416906391db0b7e908490612584908e908e90600401613b4d565b60206040518083038185885af11580156125a2573d6000803e3d6000fd5b50505050506040513d601f19601f820116820180604052508101906125c79190613b30565b6125e45760405163e8bee83960e01b815260040160405180910390fd5b85156125f3576125f387612b47565b509998505050505050505050565b60208083015160c084015160e0850151604080870151606088015161010089015160a08a01516101208b0151945160009961264299989796918c9101613bc3565b60405160208183030381529060405280519060200120905092915050565b60008072184f03e93ff9f4daa797ed6e38ed64bf6a1f0160401b831061269f5772184f03e93ff9f4daa797ed6e38ed64bf6a1f0160401b830492506040015b6d04ee2d6d415b85acef810000000083106126cb576d04ee2d6d415b85acef8100000000830492506020015b662386f26fc1000083106126e957662386f26fc10000830492506010015b6305f5e1008310612701576305f5e100830492506008015b612710831061271557612710830492506004015b60648310612727576064830492506002015b600a83106106ac5760010192915050565b606060ff83146127525761274b83612b5a565b90506106ac565b81805461275e906134cd565b80601f016020809104026020016040519081016040528092919081815260200182805461278a906134cd565b80156127d75780601f106127ac576101008083540402835291602001916127d7565b820191906000526020600020905b8154815290600101906020018083116127ba57829003601f168201915b505050505090506106ac565b6000806000835160410361281d5760208401516040850151606086015160001a61280f88828585612b99565b955095509550505050612829565b50508151600091506002905b9250925092565b6000806000856001600160a01b03168585604051602401612852929190613c60565b60408051601f198184030181529181526020820180516001600160e01b0316630b135d3f60e11b179052516128879190613c81565b600060405180830381855afa9150503d80600081146128c2576040519150601f19603f3d011682016040523d82523d6000602084013e6128c7565b606091505b50915091508180156128db57506020815110155b80156122eb57508051630b135d3f60e11b906129009083016020908101908401613c93565b149695505050505050565b60208601516000906001600160a01b03811661295957851561294057604051631574f9f360e01b815260040160405180910390fd5b821561294f5761294f84612b47565b60009150506122eb565b8515612a0557806001600160a01b031663ce46e0466040518163ffffffff1660e01b8152600401602060405180830381865afa15801561299d573d6000803e3d6000fd5b505050506040513d601f19601f820116820180604052508101906129c19190613b30565b6129de57604051631574f9f360e01b815260040160405180910390fd5b838611156129ff5760405163044044a560e21b815260040160405180910390fd5b85840393505b8415612a9e5760405163e49617e160e01b81526001600160a01b0382169063e49617e1908890612a39908b906004016130cf565b60206040518083038185885af1158015612a57573d6000803e3d6000fd5b50505050506040513d601f19601f82011682018060405250810190612a7c9190613b30565b612a995760405163ccf3bb2760e01b815260040160405180910390fd5b612b2c565b60405163e60c350560e01b81526001600160a01b0382169063e60c3505908890612acc908b906004016130cf565b60206040518083038185885af1158015612aea573d6000803e3d6000fd5b50505050506040513d601f19601f82011682018060405250810190612b0f9190613b30565b612b2c5760405163bd8ba84d60e01b815260040160405180910390fd5b8215612b3b57612b3b84612b47565b50939695505050505050565b8015612b5757612b573382612c68565b50565b60606000612b6783612d03565b604080516020808252818301909252919250600091906020820181803683375050509182525060208101929092525090565b600080807f7fffffffffffffffffffffffffffffff5d576e7357a4501ddfe92f46681b20a0841115612bd45750600091506003905082612c5e565b604080516000808252602082018084528a905260ff891692820192909252606081018790526080810186905260019060a0016020604051602081039080840390855afa158015612c28573d6000803e3d6000fd5b5050604051601f1901519150506001600160a01b038116612c5457506000925060019150829050612c5e565b9250600091508190505b9450945094915050565b80471015612c8f5760405163cd78605960e01b815230600482015260240160405180910390fd5b6000826001600160a01b03168260405160006040518083038185875af1925050503d8060008114612cdc576040519150601f19603f3d011682016040523d82523d6000602084013e612ce1565b606091505b50509050806109f157604051630a12f52160e11b815260040160405180910390fd5b600060ff8216601f8111156106ac57604051632cd44ac360e21b815260040160405180910390fd5b604080516101408101825260008082526020820181905291810182905260608082018390526080820183905260a0820183905260c0820183905260e0820183905261010082019290925261012081019190915290565b60008083601f840112612d9357600080fd5b5081356001600160401b03811115612daa57600080fd5b6020830191508360208260051b8501011115612dc557600080fd5b9250929050565b60008060208385031215612ddf57600080fd5b82356001600160401b03811115612df557600080fd5b612e0185828601612d81565b90969095509350505050565b60005b83811015612e28578181015183820152602001612e10565b50506000910152565b60008151808452612e49816020860160208601612e0d565b601f01601f19169290920160200192915050565b602081526000612e706020830184612e31565b9392505050565b6001600160a01b0381168114612b5757600080fd5b8035612e9781612e77565b919050565b600060208284031215612eae57600080fd5b8135612e7081612e77565b600060208284031215612ecb57600080fd5b81356001600160401b03811115612ee157600080fd5b820160e08185031215612e7057600080fd5b6020808252825182820181905260009190848201906040850190845b81811015612f2b57835183529284019291840191600101612f0f565b50909695505050505050565b600060608284031215612f4957600080fd5b50919050565b600060208284031215612f6157600080fd5b5035919050565b600081518084526020808501945080840160005b83811015612f9857815187529582019590820190600101612f7c565b509495945050505050565b60ff60f81b8816815260e060208201526000612fc260e0830189612e31565b8281036040840152612fd48189612e31565b606084018890526001600160a01b038716608085015260a0840186905283810360c0850152905061175e8185612f68565b60006101408251845260208301516020850152604083015161303260408601826001600160401b03169052565b50606083015161304d60608601826001600160401b03169052565b50608083015161306860808601826001600160401b03169052565b5060a083015160a085015260c083015161308d60c08601826001600160a01b03169052565b5060e08301516130a860e08601826001600160a01b03169052565b5061010083810151151590850152610120808401518186018390526122eb83870182612e31565b602081526000612e706020830184613005565b60006101008284031215612f4957600080fd5b6000806040838503121561310857600080fd5b823561311381612e77565b946020939093013593505050565b60006020828403121561313357600080fd5b81356001600160401b0381111561314957600080fd5b820160408185031215612e7057600080fd5b634e487b7160e01b600052603260045260246000fd5b60008235609e1983360301811261318757600080fd5b9190910192915050565b634e487b7160e01b600052604160045260246000fd5b60405160a081016001600160401b03811182821017156131c9576131c9613191565b60405290565b60405160c081016001600160401b03811182821017156131c9576131c9613191565b604051608081016001600160401b03811182821017156131c9576131c9613191565b604051601f8201601f191681016001600160401b038111828210171561323b5761323b613191565b604052919050565b60006001600160401b0382111561325c5761325c613191565b5060051b60200190565b60006040828403121561327857600080fd5b604051604081018181106001600160401b038211171561329a5761329a613191565b604052823581526020928301359281019290925250919050565b6000606082840312156132c657600080fd5b604051606081018181106001600160401b03821117156132e8576132e8613191565b604052905080823560ff811681146132ff57600080fd5b8082525060208301356020820152604083013560408201525092915050565b600082601f83011261332f57600080fd5b8135602061334461333f83613243565b613213565b8281526060928302850182019282820191908785111561336357600080fd5b8387015b858110156133865761337989826132b4565b8452928401928101613367565b5090979650505050505050565b80356001600160401b0381168114612e9757600080fd5b600060a082360312156133bc57600080fd5b6133c46131a7565b823581526020808401356001600160401b03808211156133e357600080fd5b9085019036601f8301126133f657600080fd5b813561340461333f82613243565b81815260069190911b8301840190848101903683111561342357600080fd5b938501935b8285101561344c5761343a3686613266565b82528582019150604085019450613428565b8086880152505050604086013592508083111561346857600080fd5b50506134763682860161331e565b60408301525061348860608401612e8c565b606082015261349960808401613393565b608082015292915050565b634e487b7160e01b600052601160045260246000fd5b818103818111156106ac576106ac6134a4565b600181811c908216806134e157607f821691505b602082108103612f4957634e487b7160e01b600052602260045260246000fd5b8015158114612b5757600080fd5b60006001600160401b0382111561352857613528613191565b50601f01601f191660200190565b600060c0828403121561354857600080fd5b6135506131cf565b9050813561355d81612e77565b8152602061356c838201613393565b81830152604083013561357e81613501565b60408301526060838101359083015260808301356001600160401b038111156135a657600080fd5b8301601f810185136135b757600080fd5b80356135c561333f8261350f565b81815286848385010111156135d957600080fd5b818484018583013760008483830101528060808601525050505060a082013560a082015292915050565b600060e0823603121561361557600080fd5b61361d6131a7565b8235815260208301356001600160401b0381111561363a57600080fd5b61364636828601613536565b60208301525061365936604085016132b4565b604082015260a083013561366c81612e77565b606082015261349960c08401613393565b6000823560be1983360301811261318757600080fd5b60006106ac3683613536565b60008235603e1983360301811261318757600080fd5b6000808335601e198436030181126136cc57600080fd5b8301803591506001600160401b038211156136e657600080fd5b6020019150600581901b3603821315612dc557600080fd5b600061370c61333f84613243565b80848252602080830192508560051b85013681111561372a57600080fd5b855b818110156137655780356001600160401b0381111561374b5760008081fd5b61375736828a01613536565b86525093820193820161372c565b50919695505050505050565b60006040828403121561378357600080fd5b612e708383613266565b6000808335601e198436030181126137a457600080fd5b8301803591506001600160401b038211156137be57600080fd5b6020019150600681901b3603821315612dc557600080fd5b600084516137e8818460208901612e0d565b8083019050601760f91b8082528551613808816001850160208a01612e0d565b60019201918201528351613823816002840160208801612e0d565b0160020195945050505050565b6000808335601e1984360301811261384757600080fd5b8301803591506001600160401b0382111561386157600080fd5b6020019150606081023603821315612dc557600080fd5b60006060828403121561388a57600080fd5b612e7083836132b4565b6000602082840312156138a657600080fd5b612e7082613393565b600061010082840312156138c257600080fd5b6138ca6131a7565b823581526138db8460208501613266565b60208201526138ed84606085016132b4565b604082015260c083013561390081612e77565b606082015261391160e08401613393565b60808201529392505050565b60006001820161392f5761392f6134a4565b5060010190565b6000602080838503121561394957600080fd5b82516001600160401b038082111561396057600080fd5b908401906080828703121561397457600080fd5b61397c6131f1565b825181528383015161398d81612e77565b81850152604083015161399f81613501565b60408201526060830151828111156139b657600080fd5b80840193505086601f8401126139cb57600080fd5b825191506139db61333f8361350f565b82815287858486010111156139ef57600080fd5b6139fe83868301878701612e0d565b60608201529695505050505050565b601f8211156109f157600081815260208120601f850160051c81016020861015613a345750805b601f850160051c820191505b81811015613a5357828155600101613a40565b505050505050565b81516001600160401b03811115613a7457613a74613191565b613a8881613a8284546134cd565b84613a0d565b602080601f831160018114613abd5760008415613aa55750858301515b600019600386901b1c1916600185901b178555613a53565b600085815260208120601f198616915b82811015613aec57888601518255948401946001909101908401613acd565b5085821015613b0a5787850151600019600388901b60f8161c191681555b5050505050600190811b01905550565b634e487b7160e01b600052602160045260246000fd5b600060208284031215613b4257600080fd5b8151612e7081613501565b6000604082016040835280855180835260608501915060608160051b8601019250602080880160005b83811015613ba457605f19888703018552613b92868351613005565b95509382019390820190600101613b76565b505085840381870152505050613bba8185612f68565b95945050505050565b89815260006bffffffffffffffffffffffff19808b60601b166020840152808a60601b166034840152506001600160401b0360c01b808960c01b166048840152808860c01b1660508401525085151560f81b60588301528460598301528351613c33816079850160208801612e0d565b60e09390931b6001600160e01b03191660799290930191820192909252607d019998505050505050505050565b828152604060208201526000613c796040830184612e31565b949350505050565b60008251613187818460208701612e0d565b600060208284031215613ca557600080fd5b505191905056fea26469706673582212209480d0270e157590be98dc650e1e382cb7ca2d1d396d7be404427cfbad3f637864736f6c63430008150033",
    "linkReferences": {}
  },
  "methodIdentifiers": {
    "attest((bytes32,(address,uint64,bool,bytes32,bytes,uint256)))": "f17325e7",
    "attestByDelegation((bytes32,(address,uint64,bool,bytes32,bytes,uint256),(uint8,bytes32,bytes32),address,uint64))": "3c042715",
    "eip712Domain()": "84b0196e",
    "getAttestTypeHash()": "12b11a17",
    "getAttestation(bytes32)": "a3112a64",
    "getDomainSeparator()": "ed24911d",
    "getName()": "17d7de7c",
    "getNonce(address)": "2d0335ab",
    "getRevokeOffchain(address,bytes32)": "b469318d",
    "getRevokeTypeHash()": "b83010d3",
    "getSchemaRegistry()": "f10b5cc8",
    "getTimestamp(bytes32)": "d45c4435",
    "increaseNonce(uint256)": "79f7573a",
    "isAttestationValid(bytes32)": "e30bb563",
    "multiAttest((bytes32,(address,uint64,bool,bytes32,bytes,uint256)[])[])": "44adc90e",
    "multiAttestByDelegation((bytes32,(address,uint64,bool,bytes32,bytes,uint256)[],(uint8,bytes32,bytes32)[],address,uint64)[])": "95411525",
    "multiRevoke((bytes32,(bytes32,uint256)[])[])": "4cb7e9e5",
    "multiRevokeByDelegation((bytes32,(bytes32,uint256)[],(uint8,bytes32,bytes32)[],address,uint64)[])": "0eabf660",
    "multiRevokeOffchain(bytes32[])": "13893f61",
    "multiTimestamp(bytes32[])": "e71ff365",
    "revoke((bytes32,(bytes32,uint256)))": "46926267",
    "revokeByDelegation((bytes32,(bytes32,uint256),(uint8,bytes32,bytes32),address,uint64))": "a6d4dbc7",
    "revokeOffchain(bytes32)": "cf190f34",
    "timestamp(bytes32)": "4d003070",
    "version()": "54fd4d50"
  },
  "id": 1
}